{"address":"0x6b7604CEee41E98238028c847eF198C0DbCbfDB2","bytecode":"0x60c0604052600b60808190526a4e69667479204974656d7360a81b60a09081526200002e9160059190620001d1565b506040805180820190915260038082526213931560ea1b60209092019182526200005b91600691620001d1565b503480156200006957600080fd5b5060405162002b2e38038062002b2e8339810160408190526200008c9162000277565b8062000098816200010f565b506004805460ff19169055620000b060003362000128565b620000dc7f9f2df0fed2c77648de5860a4cc508cd0818c85b8b8a1ab4ceeef8d981c8956a63362000128565b620001087f65d7a28e3265b37a6474929f336521b332c1681b933f6cb9f3376673440d862a3362000128565b50620003a0565b805162000124906003906020840190620001d1565b5050565b6000828152602081815260408083206001600160a01b038516845290915290205462000124908390839060ff1662000124576000828152602081815260408083206001600160a01b03851684529091529020805460ff191660011790556200018d3390565b6001600160a01b0316816001600160a01b0316837f2f8788117e7eff1d82e926ec794901d17c78024a50270940304540a733656f0d60405160405180910390a45050565b828054620001df906200034d565b90600052602060002090601f0160209004810192826200020357600085556200024e565b82601f106200021e57805160ff19168380011785556200024e565b828001600101855582156200024e579182015b828111156200024e57825182559160200191906001019062000231565b506200025c92915062000260565b5090565b5b808211156200025c576000815560010162000261565b600060208083850312156200028a578182fd5b82516001600160401b0380821115620002a1578384fd5b818501915085601f830112620002b5578384fd5b815181811115620002ca57620002ca6200038a565b604051601f8201601f19908116603f01168101908382118183101715620002f557620002f56200038a565b8160405282815288868487010111156200030d578687fd5b8693505b8284101562000330578484018601518185018701529285019262000311565b828411156200034157868684830101525b98975050505050505050565b600181811c908216806200036257607f821691505b602082108114156200038457634e487b7160e01b600052602260045260246000fd5b50919050565b634e487b7160e01b600052604160045260246000fd5b61277e80620003b06000396000f3fe608060405234801561001057600080fd5b506004361061018d5760003560e01c80636b20c454116100de578063a6559fe411610097578063e63ab1e911610071578063e63ab1e914610358578063e985e9c51461037f578063f242432a146103bb578063f5298aca146103ce57600080fd5b8063a6559fe414610316578063d53913931461031e578063d547741f1461034557600080fd5b80636b20c454146102ba578063731133e9146102cd57806391d14854146102e057806395d89b41146102f3578063a217fddf146102fb578063a22cb4651461030357600080fd5b8063248a9ca31161014b57806336568abe1161012557806336568abe146102745780634295e857146102875780634e1273f41461028f5780635c975abb146102af57600080fd5b8063248a9ca31461022b5780632eb2c2d61461024e5780632f2ff15d1461026157600080fd5b8062fdd58e1461019257806301ffc9a7146101b857806302fe5305146101db57806306fdde03146101f05780630e89341c146102055780631f7fdffa14610218575b600080fd5b6101a56101a0366004611f29565b6103e1565b6040519081526020015b60405180910390f35b6101cb6101c63660046120da565b61047a565b60405190151581526020016101af565b6101ee6101e9366004612112565b61048b565b005b6101f86104a4565b6040516101af919061231e565b6101f86102133660046120a0565b610532565b6101ee610226366004611e5b565b6105c6565b6101a56102393660046120a0565b60009081526020819052604090206001015490565b6101ee61025c366004611ce4565b610604565b6101ee61026f3660046120b8565b610694565b6101ee6102823660046120b8565b6106bf565b6101ee610739565b6102a261029d366004611fd6565b61076f565b6040516101af91906122dd565b60045460ff166101cb565b6101ee6102c8366004611deb565b6108d0565b6101ee6102db366004611f84565b610966565b6101cb6102ee3660046120b8565b61099d565b6101f86109c6565b6101a5600081565b6101ee610311366004611eef565b6109d3565b6101ee610aaa565b6101a57f9f2df0fed2c77648de5860a4cc508cd0818c85b8b8a1ab4ceeef8d981c8956a681565b6101ee6103533660046120b8565b610add565b6101a57f65d7a28e3265b37a6474929f336521b332c1681b933f6cb9f3376673440d862a81565b6101cb61038d366004611cb2565b6001600160a01b03918216600090815260026020908152604080832093909416825291909152205460ff1690565b6101ee6103c9366004611d89565b610b03565b6101ee6103dc366004611f52565b610b8a565b60006001600160a01b0383166104525760405162461bcd60e51b815260206004820152602b60248201527f455243313135353a2062616c616e636520717565727920666f7220746865207a60448201526a65726f206164647265737360a81b60648201526084015b60405180910390fd5b5060009081526001602090815260408083206001600160a01b03949094168352929052205490565b600061048582610c20565b92915050565b60006104978133610c60565b6104a082610cc4565b5050565b600580546104b1906125e3565b80601f01602080910402602001604051908101604052809291908181526020018280546104dd906125e3565b801561052a5780601f106104ff5761010080835404028352916020019161052a565b820191906000526020600020905b81548152906001019060200180831161050d57829003601f168201915b505050505081565b606060038054610541906125e3565b80601f016020809104026020016040519081016040528092919081815260200182805461056d906125e3565b80156105ba5780601f1061058f576101008083540402835291602001916105ba565b820191906000526020600020905b81548152906001019060200180831161059d57829003601f168201915b50505050509050919050565b7f9f2df0fed2c77648de5860a4cc508cd0818c85b8b8a1ab4ceeef8d981c8956a66105f18133610c60565b6105fd85858585610cd7565b5050505050565b6001600160a01b0385163314806106205750610620853361038d565b6106875760405162461bcd60e51b815260206004820152603260248201527f455243313135353a207472616e736665722063616c6c6572206973206e6f74206044820152711bdddb995c881b9bdc88185c1c1c9bdd995960721b6064820152608401610449565b6105fd8585858585610e3f565b6000828152602081905260409020600101546106b08133610c60565b6106ba8383610ffa565b505050565b6001600160a01b038116331461072f5760405162461bcd60e51b815260206004820152602f60248201527f416363657373436f6e74726f6c3a2063616e206f6e6c792072656e6f756e636560448201526e103937b632b9903337b91039b2b63360891b6064820152608401610449565b6104a0828261107e565b7f65d7a28e3265b37a6474929f336521b332c1681b933f6cb9f3376673440d862a6107648133610c60565b61076c6110e3565b50565b606081518351146107d45760405162461bcd60e51b815260206004820152602960248201527f455243313135353a206163636f756e747320616e6420696473206c656e677468604482015268040dad2e6dac2e8c6d60bb1b6064820152608401610449565b600083516001600160401b038111156107fd57634e487b7160e01b600052604160045260246000fd5b604051908082528060200260200182016040528015610826578160200160208202803683370190505b50905060005b84518110156108c85761088d85828151811061085857634e487b7160e01b600052603260045260246000fd5b602002602001015185838151811061088057634e487b7160e01b600052603260045260246000fd5b60200260200101516103e1565b8282815181106108ad57634e487b7160e01b600052603260045260246000fd5b60209081029190910101526108c18161264a565b905061082c565b509392505050565b60045460ff16156108f35760405162461bcd60e51b8152600401610449906123bd565b6001600160a01b03831633148061090f575061090f833361038d565b61095b5760405162461bcd60e51b815260206004820181905260248201527f43616c6c6572206973206e6f74206f776e6572206e6f7220617070726f7665646044820152606401610449565b6106ba838383611176565b7f9f2df0fed2c77648de5860a4cc508cd0818c85b8b8a1ab4ceeef8d981c8956a66109918133610c60565b6105fd85858585611311565b6000918252602082815260408084206001600160a01b0393909316845291905290205460ff1690565b600680546104b1906125e3565b336001600160a01b0383161415610a3e5760405162461bcd60e51b815260206004820152602960248201527f455243313135353a2073657474696e6720617070726f76616c20737461747573604482015268103337b91039b2b63360b91b6064820152608401610449565b3360008181526002602090815260408083206001600160a01b03871680855290835292819020805460ff191686151590811790915590519081529192917f17307eab39ab6107e8899845ad3d59bd9653f200f220920489ca2b5937696c31910160405180910390a35050565b7f65d7a28e3265b37a6474929f336521b332c1681b933f6cb9f3376673440d862a610ad58133610c60565b61076c6113e3565b600082815260208190526040902060010154610af98133610c60565b6106ba838361107e565b6001600160a01b038516331480610b1f5750610b1f853361038d565b610b7d5760405162461bcd60e51b815260206004820152602960248201527f455243313135353a2063616c6c6572206973206e6f74206f776e6572206e6f7260448201526808185c1c1c9bdd995960ba1b6064820152608401610449565b6105fd858585858561143b565b60045460ff1615610bad5760405162461bcd60e51b8152600401610449906123bd565b6001600160a01b038316331480610bc95750610bc9833361038d565b610c155760405162461bcd60e51b815260206004820181905260248201527f43616c6c6572206973206e6f74206f776e6572206e6f7220617070726f7665646044820152606401610449565b6106ba83838361155c565b60006001600160e01b03198216636cdb3d1360e11b1480610c5157506001600160e01b031982166303a24d0760e21b145b80610485575061048582611662565b610c6a828261099d565b6104a057610c82816001600160a01b03166014611697565b610c8d836020611697565b604051602001610c9e9291906121c5565b60408051601f198184030181529082905262461bcd60e51b82526104499160040161231e565b80516104a0906003906020840190611b0d565b6001600160a01b038416610cfd5760405162461bcd60e51b815260040161044990612501565b8151835114610d1e5760405162461bcd60e51b8152600401610449906124b9565b3360005b8451811015610dd757838181518110610d4b57634e487b7160e01b600052603260045260246000fd5b602002602001015160016000878481518110610d7757634e487b7160e01b600052603260045260246000fd5b602002602001015181526020019081526020016000206000886001600160a01b03166001600160a01b031681526020019081526020016000206000828254610dbf9190612565565b90915550819050610dcf8161264a565b915050610d22565b50846001600160a01b031660006001600160a01b0316826001600160a01b03167f4a39dc06d4c0dbc64b70af90fd698a233a518aa5d07e595d983b8c0526c8f7fb8787604051610e289291906122f0565b60405180910390a46105fd8160008787878761187f565b8151835114610e605760405162461bcd60e51b8152600401610449906124b9565b6001600160a01b038416610e865760405162461bcd60e51b8152600401610449906123e7565b3360005b8451811015610f8c576000858281518110610eb557634e487b7160e01b600052603260045260246000fd5b602002602001015190506000858381518110610ee157634e487b7160e01b600052603260045260246000fd5b60209081029190910181015160008481526001835260408082206001600160a01b038e168352909352919091205490915081811015610f325760405162461bcd60e51b81526004016104499061246f565b60008381526001602090815260408083206001600160a01b038e8116855292528083208585039055908b16825281208054849290610f71908490612565565b9250508190555050505080610f859061264a565b9050610e8a565b50846001600160a01b0316866001600160a01b0316826001600160a01b03167f4a39dc06d4c0dbc64b70af90fd698a233a518aa5d07e595d983b8c0526c8f7fb8787604051610fdc9291906122f0565b60405180910390a4610ff281878787878761187f565b505050505050565b611004828261099d565b6104a0576000828152602081815260408083206001600160a01b03851684529091529020805460ff1916600117905561103a3390565b6001600160a01b0316816001600160a01b0316837f2f8788117e7eff1d82e926ec794901d17c78024a50270940304540a733656f0d60405160405180910390a45050565b611088828261099d565b156104a0576000828152602081815260408083206001600160a01b0385168085529252808320805460ff1916905551339285917ff6391f5c32d9c69d2a47ea670b442974b53935d1edc7fd64eb21e047a839171b9190a45050565b60045460ff1661112c5760405162461bcd60e51b815260206004820152601460248201527314185d5cd8589b194e881b9bdd081c185d5cd95960621b6044820152606401610449565b6004805460ff191690557f5db9ee0a495bf2e6ff9c91a7834c1ba4fdd244a5e8aa4e537bd38aeae4b073aa335b6040516001600160a01b03909116815260200160405180910390a1565b6001600160a01b03831661119c5760405162461bcd60e51b81526004016104499061242c565b80518251146111bd5760405162461bcd60e51b8152600401610449906124b9565b604080516020810190915260009081905233905b83518110156112b25760008482815181106111fc57634e487b7160e01b600052603260045260246000fd5b60200260200101519050600084838151811061122857634e487b7160e01b600052603260045260246000fd5b60209081029190910181015160008481526001835260408082206001600160a01b038c1683529093529190912054909150818110156112795760405162461bcd60e51b815260040161044990612379565b60009283526001602090815260408085206001600160a01b038b16865290915290922091039055806112aa8161264a565b9150506111d1565b5060006001600160a01b0316846001600160a01b0316826001600160a01b03167f4a39dc06d4c0dbc64b70af90fd698a233a518aa5d07e595d983b8c0526c8f7fb86866040516113039291906122f0565b60405180910390a450505050565b6001600160a01b0384166113375760405162461bcd60e51b815260040161044990612501565b3361135181600087611348886119ea565b6105fd886119ea565b60008481526001602090815260408083206001600160a01b038916845290915281208054859290611383908490612565565b909155505060408051858152602081018590526001600160a01b0380881692600092918516917fc3d58168c5ae7397731d063d5bbf3d657854427343f4c083240f7aacaa2d0f62910160405180910390a46105fd81600087878787611a43565b60045460ff16156114065760405162461bcd60e51b8152600401610449906123bd565b6004805460ff191660011790557f62e78cea01bee320cd4e420270b5ea74000d11b0c9f74754ebdbfc544b05a2586111593390565b6001600160a01b0384166114615760405162461bcd60e51b8152600401610449906123e7565b33611471818787611348886119ea565b60008481526001602090815260408083206001600160a01b038a168452909152902054838110156114b45760405162461bcd60e51b81526004016104499061246f565b60008581526001602090815260408083206001600160a01b038b81168552925280832087850390559088168252812080548692906114f3908490612565565b909155505060408051868152602081018690526001600160a01b03808916928a821692918616917fc3d58168c5ae7397731d063d5bbf3d657854427343f4c083240f7aacaa2d0f62910160405180910390a4611553828888888888611a43565b50505050505050565b6001600160a01b0383166115825760405162461bcd60e51b81526004016104499061242c565b336115b281856000611593876119ea565b61159c876119ea565b5050604080516020810190915260009052505050565b60008381526001602090815260408083206001600160a01b0388168452909152902054828110156115f55760405162461bcd60e51b815260040161044990612379565b60008481526001602090815260408083206001600160a01b03898116808652918452828520888703905582518981529384018890529092908616917fc3d58168c5ae7397731d063d5bbf3d657854427343f4c083240f7aacaa2d0f62910160405180910390a45050505050565b60006001600160e01b03198216637965db0b60e01b148061048557506301ffc9a760e01b6001600160e01b0319831614610485565b606060006116a683600261257d565b6116b1906002612565565b6001600160401b038111156116d657634e487b7160e01b600052604160045260246000fd5b6040519080825280601f01601f191660200182016040528015611700576020820181803683370190505b509050600360fc1b8160008151811061172957634e487b7160e01b600052603260045260246000fd5b60200101906001600160f81b031916908160001a905350600f60fb1b8160018151811061176657634e487b7160e01b600052603260045260246000fd5b60200101906001600160f81b031916908160001a905350600061178a84600261257d565b611795906001612565565b90505b6001811115611829576f181899199a1a9b1b9c1cb0b131b232b360811b85600f16601081106117d757634e487b7160e01b600052603260045260246000fd5b1a60f81b8282815181106117fb57634e487b7160e01b600052603260045260246000fd5b60200101906001600160f81b031916908160001a90535060049490941c93611822816125cc565b9050611798565b5083156118785760405162461bcd60e51b815260206004820181905260248201527f537472696e67733a20686578206c656e67746820696e73756666696369656e746044820152606401610449565b9392505050565b6001600160a01b0384163b15610ff25760405163bc197c8160e01b81526001600160a01b0385169063bc197c81906118c3908990899088908890889060040161223a565b602060405180830381600087803b1580156118dd57600080fd5b505af192505050801561190d575060408051601f3d908101601f1916820190925261190a918101906120f6565b60015b6119ba57611919612691565b806308c379a01415611953575061192e6126a9565b806119395750611955565b8060405162461bcd60e51b8152600401610449919061231e565b505b60405162461bcd60e51b815260206004820152603460248201527f455243313135353a207472616e7366657220746f206e6f6e20455243313135356044820152732932b1b2b4bb32b91034b6b83632b6b2b73a32b960611b6064820152608401610449565b6001600160e01b0319811663bc197c8160e01b146115535760405162461bcd60e51b815260040161044990612331565b60408051600180825281830190925260609160009190602080830190803683370190505090508281600081518110611a3257634e487b7160e01b600052603260045260246000fd5b602090810291909101015292915050565b6001600160a01b0384163b15610ff25760405163f23a6e6160e01b81526001600160a01b0385169063f23a6e6190611a879089908990889088908890600401612298565b602060405180830381600087803b158015611aa157600080fd5b505af1925050508015611ad1575060408051601f3d908101601f19168201909252611ace918101906120f6565b60015b611add57611919612691565b6001600160e01b0319811663f23a6e6160e01b146115535760405162461bcd60e51b815260040161044990612331565b828054611b19906125e3565b90600052602060002090601f016020900481019282611b3b5760008555611b81565b82601f10611b5457805160ff1916838001178555611b81565b82800160010185558215611b81579182015b82811115611b81578251825591602001919060010190611b66565b50611b8d929150611b91565b5090565b5b80821115611b8d5760008155600101611b92565b60006001600160401b03831115611bbf57611bbf61267b565b604051611bd6601f8501601f19166020018261261e565b809150838152848484011115611beb57600080fd5b83836020830137600060208583010152509392505050565b80356001600160a01b0381168114611c1a57600080fd5b919050565b600082601f830112611c2f578081fd5b81356020611c3c82612542565b604051611c49828261261e565b8381528281019150858301600585901b87018401881015611c68578586fd5b855b85811015611c8657813584529284019290840190600101611c6a565b5090979650505050505050565b600082601f830112611ca3578081fd5b61187883833560208501611ba6565b60008060408385031215611cc4578182fd5b611ccd83611c03565b9150611cdb60208401611c03565b90509250929050565b600080600080600060a08688031215611cfb578081fd5b611d0486611c03565b9450611d1260208701611c03565b935060408601356001600160401b0380821115611d2d578283fd5b611d3989838a01611c1f565b94506060880135915080821115611d4e578283fd5b611d5a89838a01611c1f565b93506080880135915080821115611d6f578283fd5b50611d7c88828901611c93565b9150509295509295909350565b600080600080600060a08688031215611da0578081fd5b611da986611c03565b9450611db760208701611c03565b9350604086013592506060860135915060808601356001600160401b03811115611ddf578182fd5b611d7c88828901611c93565b600080600060608486031215611dff578283fd5b611e0884611c03565b925060208401356001600160401b0380821115611e23578384fd5b611e2f87838801611c1f565b93506040860135915080821115611e44578283fd5b50611e5186828701611c1f565b9150509250925092565b60008060008060808587031215611e70578384fd5b611e7985611c03565b935060208501356001600160401b0380821115611e94578485fd5b611ea088838901611c1f565b94506040870135915080821115611eb5578384fd5b611ec188838901611c1f565b93506060870135915080821115611ed6578283fd5b50611ee387828801611c93565b91505092959194509250565b60008060408385031215611f01578182fd5b611f0a83611c03565b915060208301358015158114611f1e578182fd5b809150509250929050565b60008060408385031215611f3b578182fd5b611f4483611c03565b946020939093013593505050565b600080600060608486031215611f66578081fd5b611f6f84611c03565b95602085013595506040909401359392505050565b60008060008060808587031215611f99578182fd5b611fa285611c03565b9350602085013592506040850135915060608501356001600160401b03811115611fca578182fd5b611ee387828801611c93565b60008060408385031215611fe8578182fd5b82356001600160401b0380821115611ffe578384fd5b818501915085601f830112612011578384fd5b8135602061201e82612542565b60405161202b828261261e565b8381528281019150858301600585901b870184018b101561204a578889fd5b8896505b848710156120735761205f81611c03565b83526001969096019591830191830161204e565b5096505086013592505080821115612089578283fd5b5061209685828601611c1f565b9150509250929050565b6000602082840312156120b1578081fd5b5035919050565b600080604083850312156120ca578182fd5b82359150611cdb60208401611c03565b6000602082840312156120eb578081fd5b813561187881612732565b600060208284031215612107578081fd5b815161187881612732565b600060208284031215612123578081fd5b81356001600160401b03811115612138578182fd5b8201601f81018413612148578182fd5b61215784823560208401611ba6565b949350505050565b6000815180845260208085019450808401835b8381101561218e57815187529582019590820190600101612172565b509495945050505050565b600081518084526121b181602086016020860161259c565b601f01601f19169290920160200192915050565b7f416363657373436f6e74726f6c3a206163636f756e74200000000000000000008152600083516121fd81601785016020880161259c565b7001034b99036b4b9b9b4b733903937b6329607d1b601791840191820152835161222e81602884016020880161259c565b01602801949350505050565b6001600160a01b0386811682528516602082015260a0604082018190526000906122669083018661215f565b8281036060840152612278818661215f565b9050828103608084015261228c8185612199565b98975050505050505050565b6001600160a01b03868116825285166020820152604081018490526060810183905260a0608082018190526000906122d290830184612199565b979650505050505050565b602081526000611878602083018461215f565b604081526000612303604083018561215f565b8281036020840152612315818561215f565b95945050505050565b6020815260006118786020830184612199565b60208082526028908201527f455243313135353a204552433131353552656365697665722072656a656374656040820152676420746f6b656e7360c01b606082015260800190565b60208082526024908201527f455243313135353a206275726e20616d6f756e7420657863656564732062616c604082015263616e636560e01b606082015260800190565b60208082526010908201526f14185d5cd8589b194e881c185d5cd95960821b604082015260600190565b60208082526025908201527f455243313135353a207472616e7366657220746f20746865207a65726f206164604082015264647265737360d81b606082015260800190565b60208082526023908201527f455243313135353a206275726e2066726f6d20746865207a65726f206164647260408201526265737360e81b606082015260800190565b6020808252602a908201527f455243313135353a20696e73756666696369656e742062616c616e636520666f60408201526939103a3930b739b332b960b11b606082015260800190565b60208082526028908201527f455243313135353a2069647320616e6420616d6f756e7473206c656e677468206040820152670dad2e6dac2e8c6d60c31b606082015260800190565b60208082526021908201527f455243313135353a206d696e7420746f20746865207a65726f206164647265736040820152607360f81b606082015260800190565b60006001600160401b0382111561255b5761255b61267b565b5060051b60200190565b6000821982111561257857612578612665565b500190565b600081600019048311821515161561259757612597612665565b500290565b60005b838110156125b757818101518382015260200161259f565b838111156125c6576000848401525b50505050565b6000816125db576125db612665565b506000190190565b600181811c908216806125f757607f821691505b6020821081141561261857634e487b7160e01b600052602260045260246000fd5b50919050565b601f8201601f191681016001600160401b03811182821017156126435761264361267b565b6040525050565b600060001982141561265e5761265e612665565b5060010190565b634e487b7160e01b600052601160045260246000fd5b634e487b7160e01b600052604160045260246000fd5b600060033d11156126a657600481823e5160e01c5b90565b600060443d10156126b75790565b6040516003193d81016004833e81513d6001600160401b0381602484011181841117156126e657505050505090565b82850191508151818111156126fe5750505050505090565b843d87010160208285010111156127185750505050505090565b6127276020828601018761261e565b509095945050505050565b6001600160e01b03198116811461076c57600080fdfea2646970667358221220fe572fca0c7fe10d2c8c9d1321e6d67a9d6f7e875adb1bd0395ccd6798d4824d64736f6c63430008040033","abi":[{"inputs":[{"internalType":"string","name":"uri","type":"string"}],"stateMutability":"nonpayable","type":"constructor"},{"anonymous":false,"inputs":[{"indexed":true,"internalType":"address","name":"account","type":"address"},{"indexed":true,"internalType":"address","name":"operator","type":"address"},{"indexed":false,"internalType":"bool","name":"approved","type":"bool"}],"name":"ApprovalForAll","type":"event"},{"anonymous":false,"inputs":[{"indexed":false,"internalType":"address","name":"account","type":"address"}],"name":"Paused","type":"event"},{"anonymous":false,"inputs":[{"indexed":true,"internalType":"bytes32","name":"role","type":"bytes32"},{"indexed":true,"internalType":"bytes32","name":"previousAdminRole","type":"bytes32"},{"indexed":true,"internalType":"bytes32","name":"newAdminRole","type":"bytes32"}],"name":"RoleAdminChanged","type":"event"},{"anonymous":false,"inputs":[{"indexed":true,"internalType":"bytes32","name":"role","type":"bytes32"},{"indexed":true,"internalType":"address","name":"account","type":"address"},{"indexed":true,"internalType":"address","name":"sender","type":"address"}],"name":"RoleGranted","type":"event"},{"anonymous":false,"inputs":[{"indexed":true,"internalType":"bytes32","name":"role","type":"bytes32"},{"indexed":true,"internalType":"address","name":"account","type":"address"},{"indexed":true,"internalType":"address","name":"sender","type":"address"}],"name":"RoleRevoked","type":"event"},{"anonymous":false,"inputs":[{"indexed":true,"internalType":"address","name":"operator","type":"address"},{"indexed":true,"internalType":"address","name":"from","type":"address"},{"indexed":true,"internalType":"address","name":"to","type":"address"},{"indexed":false,"internalType":"uint256[]","name":"ids","type":"uint256[]"},{"indexed":false,"internalType":"uint256[]","name":"values","type":"uint256[]"}],"name":"TransferBatch","type":"event"},{"anonymous":false,"inputs":[{"indexed":true,"internalType":"address","name":"operator","type":"address"},{"indexed":true,"internalType":"address","name":"from","type":"address"},{"indexed":true,"internalType":"address","name":"to","type":"address"},{"indexed":false,"internalType":"uint256","name":"id","type":"uint256"},{"indexed":false,"internalType":"uint256","name":"value","type":"uint256"}],"name":"TransferSingle","type":"event"},{"anonymous":false,"inputs":[{"indexed":false,"internalType":"string","name":"value","type":"string"},{"indexed":true,"internalType":"uint256","name":"id","type":"uint256"}],"name":"URI","type":"event"},{"anonymous":false,"inputs":[{"indexed":false,"internalType":"address","name":"account","type":"address"}],"name":"Unpaused","type":"event"},{"inputs":[],"name":"DEFAULT_ADMIN_ROLE","outputs":[{"internalType":"bytes32","name":"","type":"bytes32"}],"stateMutability":"view","type":"function"},{"inputs":[],"name":"MINTER_ROLE","outputs":[{"internalType":"bytes32","name":"","type":"bytes32"}],"stateMutability":"view","type":"function"},{"inputs":[],"name":"PAUSER_ROLE","outputs":[{"internalType":"bytes32","name":"","type":"bytes32"}],"stateMutability":"view","type":"function"},{"inputs":[{"internalType":"address","name":"account","type":"address"},{"internalType":"uint256","name":"id","type":"uint256"}],"name":"balanceOf","outputs":[{"internalType":"uint256","name":"","type":"uint256"}],"stateMutability":"view","type":"function"},{"inputs":[{"internalType":"address[]","name":"accounts","type":"address[]"},{"internalType":"uint256[]","name":"ids","type":"uint256[]"}],"name":"balanceOfBatch","outputs":[{"internalType":"uint256[]","name":"","type":"uint256[]"}],"stateMutability":"view","type":"function"},{"inputs":[{"internalType":"address","name":"account","type":"address"},{"internalType":"uint256","name":"id","type":"uint256"},{"internalType":"uint256","name":"value","type":"uint256"}],"name":"burn","outputs":[],"stateMutability":"nonpayable","type":"function"},{"inputs":[{"internalType":"address","name":"account","type":"address"},{"internalType":"uint256[]","name":"ids","type":"uint256[]"},{"internalType":"uint256[]","name":"values","type":"uint256[]"}],"name":"burnBatch","outputs":[],"stateMutability":"nonpayable","type":"function"},{"inputs":[{"internalType":"bytes32","name":"role","type":"bytes32"}],"name":"getRoleAdmin","outputs":[{"internalType":"bytes32","name":"","type":"bytes32"}],"stateMutability":"view","type":"function"},{"inputs":[{"internalType":"bytes32","name":"role","type":"bytes32"},{"internalType":"address","name":"account","type":"address"}],"name":"grantRole","outputs":[],"stateMutability":"nonpayable","type":"function"},{"inputs":[{"internalType":"bytes32","name":"role","type":"bytes32"},{"internalType":"address","name":"account","type":"address"}],"name":"hasRole","outputs":[{"internalType":"bool","name":"","type":"bool"}],"stateMutability":"view","type":"function"},{"inputs":[{"internalType":"address","name":"account","type":"address"},{"internalType":"address","name":"operator","type":"address"}],"name":"isApprovedForAll","outputs":[{"internalType":"bool","name":"","type":"bool"}],"stateMutability":"view","type":"function"},{"inputs":[{"internalType":"address","name":"to","type":"address"},{"internalType":"uint256","name":"id","type":"uint256"},{"internalType":"uint256","name":"amount","type":"uint256"},{"internalType":"bytes","name":"data","type":"bytes"}],"name":"mint","outputs":[],"stateMutability":"nonpayable","type":"function"},{"inputs":[{"internalType":"address","name":"to","type":"address"},{"internalType":"uint256[]","name":"ids","type":"uint256[]"},{"internalType":"uint256[]","name":"amounts","type":"uint256[]"},{"internalType":"bytes","name":"data","type":"bytes"}],"name":"mintBatch","outputs":[],"stateMutability":"nonpayable","type":"function"},{"inputs":[],"name":"name","outputs":[{"internalType":"string","name":"","type":"string"}],"stateMutability":"view","type":"function"},{"inputs":[],"name":"pauseBurn","outputs":[],"stateMutability":"nonpayable","type":"function"},{"inputs":[],"name":"paused","outputs":[{"internalType":"bool","name":"","type":"bool"}],"stateMutability":"view","type":"function"},{"inputs":[{"internalType":"bytes32","name":"role","type":"bytes32"},{"internalType":"address","name":"account","type":"address"}],"name":"renounceRole","outputs":[],"stateMutability":"nonpayable","type":"function"},{"inputs":[{"internalType":"bytes32","name":"role","type":"bytes32"},{"internalType":"address","name":"account","type":"address"}],"name":"revokeRole","outputs":[],"stateMutability":"nonpayable","type":"function"},{"inputs":[{"internalType":"address","name":"from","type":"address"},{"internalType":"address","name":"to","type":"address"},{"internalType":"uint256[]","name":"ids","type":"uint256[]"},{"internalType":"uint256[]","name":"amounts","type":"uint256[]"},{"internalType":"bytes","name":"data","type":"bytes"}],"name":"safeBatchTransferFrom","outputs":[],"stateMutability":"nonpayable","type":"function"},{"inputs":[{"internalType":"address","name":"from","type":"address"},{"internalType":"address","name":"to","type":"address"},{"internalType":"uint256","name":"id","type":"uint256"},{"internalType":"uint256","name":"amount","type":"uint256"},{"internalType":"bytes","name":"data","type":"bytes"}],"name":"safeTransferFrom","outputs":[],"stateMutability":"nonpayable","type":"function"},{"inputs":[{"internalType":"address","name":"operator","type":"address"},{"internalType":"bool","name":"approved","type":"bool"}],"name":"setApprovalForAll","outputs":[],"stateMutability":"nonpayable","type":"function"},{"inputs":[{"internalType":"string","name":"newuri","type":"string"}],"name":"setURI","outputs":[],"stateMutability":"nonpayable","type":"function"},{"inputs":[{"internalType":"bytes4","name":"interfaceId","type":"bytes4"}],"name":"supportsInterface","outputs":[{"internalType":"bool","name":"","type":"bool"}],"stateMutability":"view","type":"function"},{"inputs":[],"name":"symbol","outputs":[{"internalType":"string","name":"","type":"string"}],"stateMutability":"view","type":"function"},{"inputs":[],"name":"unpauseBurn","outputs":[],"stateMutability":"nonpayable","type":"function"},{"inputs":[{"internalType":"uint256","name":"","type":"uint256"}],"name":"uri","outputs":[{"internalType":"string","name":"","type":"string"}],"stateMutability":"view","type":"function"}]}