{"address":"0x18D57cbDafCEe2Fa728F8F7f36770F711e1AD34d","bytecode":"0x608060405234801561001057600080fd5b50610fe8806100206000396000f3fe608060405234801561001057600080fd5b50600436106100cf5760003560e01c8063715018a61161008c578063c06fad0611610066578063c06fad0614610182578063cf756fdf14610195578063dd41ef3a146101a8578063f2fde38b146101b157600080fd5b8063715018a6146101615780638456cb59146101695780638da5cb5b1461017157600080fd5b806316e1172e146100d4578063307540f6146100e95780633f4ba83a14610119578063597cc7de146101215780635c975abb146101385780635ec108171461014e575b600080fd5b6100e76100e2366004610cb7565b6101c4565b005b60ca546100fc906001600160a01b031681565b6040516001600160a01b0390911681526020015b60405180910390f35b6100e761077c565b61012a60cc5481565b604051908152602001610110565b60975460ff166040519015158152602001610110565b60c9546100fc906001600160a01b031681565b6100e76107b0565b6100e76107e4565b6033546001600160a01b03166100fc565b60cb546100fc906001600160a01b031681565b6100e76101a3366004610c6d565b610816565b61012a60cd5481565b6100e76101bf366004610c4c565b6108f1565b6002606554141561021c5760405162461bcd60e51b815260206004820152601f60248201527f5265656e7472616e637947756172643a207265656e7472616e742063616c6c0060448201526064015b60405180910390fd5b600260655560975460ff16156102675760405162461bcd60e51b815260206004820152601060248201526f14185d5cd8589b194e881c185d5cd95960821b6044820152606401610213565b4260cc541115801561027b575060cd544211155b6102c75760405162461bcd60e51b815260206004820152601b60248201527f4275726e696e6720636f6d696373206973206e6f742076616c696400000000006044820152606401610213565b80516006146103095760405162461bcd60e51b815260206004820152600e60248201526d092dcecc2d8d2c840d8cadccee8d60931b6044820152606401610213565b60408051600680825260e082019092526000916020820160c080368337505060408051600680825260e0820190925292935060009291506020820160c08036833701905050905060004260cc546213c6806103649190610f3c565b109050600081610375576000610379565b6000195b905060005b855181101561042f5782156103e757818682815181106103ae57634e487b7160e01b600052603260045260246000fd5b602002602001015110156103e7578581815181106103dc57634e487b7160e01b600052603260045260246000fd5b602002602001015191505b6103f2816001610f3c565b85828151811061041257634e487b7160e01b600052603260045260246000fd5b60209081029190910101528061042781610f6b565b91505061037e565b5080156104b45760005b85518110156104b2578186828151811061046357634e487b7160e01b600052603260045260246000fd5b60200260200101516104759190610f54565b84828151811061049557634e487b7160e01b600052603260045260246000fd5b6020908102919091010152806104aa81610f6b565b915050610439565b505b60c954604051631ac8311560e21b81526001600160a01b0390911690636b20c454906104e890339088908a90600401610db1565b600060405180830381600087803b15801561050257600080fd5b505af1158015610516573d6000803e3d6000fd5b50505050336001600160a01b03167f61ae20b90b5539676f6e0d4a5afbf874157b645ef9f8163171f73c1adc74e5eb8587604051610555929190610e40565b60405180910390a280156106c65760ca5460405163731133e960e01b8152336004820152600160248201526044810183905260806064820152600060848201526001600160a01b039091169063731133e99060a401600060405180830381600087803b1580156105c457600080fd5b505af11580156105d8573d6000803e3d6000fd5b505060cb54604051630fbfeffd60e11b81526001600160a01b039091169250631f7fdffa915061061090339088908890600401610df1565b600060405180830381600087803b15801561062a57600080fd5b505af115801561063e573d6000803e3d6000fd5b50506040805160018152602081018590523393507f8e590345184cf7d0786f64fa6623e16f019b438933b95c32f64147885218f51d92500160405180910390a2336001600160a01b03167fdc0f533bb7fe30cccfa8757300d99541b707d6f01e34457039140a610f04546f85856040516106b9929190610e40565b60405180910390a2610770565b60cb54604051630fbfeffd60e11b81526001600160a01b0390911690631f7fdffa906106fa90339088908a90600401610df1565b600060405180830381600087803b15801561071457600080fd5b505af1158015610728573d6000803e3d6000fd5b50505050336001600160a01b03167fdc0f533bb7fe30cccfa8757300d99541b707d6f01e34457039140a610f04546f8587604051610767929190610e40565b60405180910390a25b50506001606555505050565b6033546001600160a01b031633146107a65760405162461bcd60e51b815260040161021390610ebc565b6107ae61098c565b565b6033546001600160a01b031633146107da5760405162461bcd60e51b815260040161021390610ebc565b6107ae6000610a1f565b6033546001600160a01b0316331461080e5760405162461bcd60e51b815260040161021390610ebc565b6107ae610a71565b60006108226001610aec565b9050801561083a576000805461ff0019166101001790555b610842610b79565b61084a610ba8565b610852610ba8565b60c980546001600160a01b038088166001600160a01b03199283161790925560ca805487841690831617905560cb80549286169290911691909117905560cc8290556108a18262278d00610f3c565b60cd5580156108ea576000805461ff0019169055604051600181527f7f26b83ff96e1f2b6a682f133852f6798a09c465da95921460cefb38474024989060200160405180910390a15b5050505050565b6033546001600160a01b0316331461091b5760405162461bcd60e51b815260040161021390610ebc565b6001600160a01b0381166109805760405162461bcd60e51b815260206004820152602660248201527f4f776e61626c653a206e6577206f776e657220697320746865207a65726f206160448201526564647265737360d01b6064820152608401610213565b61098981610a1f565b50565b60975460ff166109d55760405162461bcd60e51b815260206004820152601460248201527314185d5cd8589b194e881b9bdd081c185d5cd95960621b6044820152606401610213565b6097805460ff191690557f5db9ee0a495bf2e6ff9c91a7834c1ba4fdd244a5e8aa4e537bd38aeae4b073aa335b6040516001600160a01b03909116815260200160405180910390a1565b603380546001600160a01b038381166001600160a01b0319831681179093556040519116919082907f8be0079c531659141344cd1fd0a4f28419497f9722a3daafe3b4186f6b6457e090600090a35050565b60975460ff1615610ab75760405162461bcd60e51b815260206004820152601060248201526f14185d5cd8589b194e881c185d5cd95960821b6044820152606401610213565b6097805460ff191660011790557f62e78cea01bee320cd4e420270b5ea74000d11b0c9f74754ebdbfc544b05a258610a023390565b60008054610100900460ff1615610b33578160ff166001148015610b0f5750303b155b610b2b5760405162461bcd60e51b815260040161021390610e6e565b506000919050565b60005460ff808416911610610b5a5760405162461bcd60e51b815260040161021390610e6e565b506000805460ff191660ff92909216919091179055600190565b919050565b600054610100900460ff16610ba05760405162461bcd60e51b815260040161021390610ef1565b6107ae610bd7565b600054610100900460ff16610bcf5760405162461bcd60e51b815260040161021390610ef1565b6107ae610c07565b600054610100900460ff16610bfe5760405162461bcd60e51b815260040161021390610ef1565b6107ae33610a1f565b600054610100900460ff16610c2e5760405162461bcd60e51b815260040161021390610ef1565b6001606555565b80356001600160a01b0381168114610b7457600080fd5b600060208284031215610c5d578081fd5b610c6682610c35565b9392505050565b60008060008060808587031215610c82578283fd5b610c8b85610c35565b9350610c9960208601610c35565b9250610ca760408601610c35565b9396929550929360600135925050565b60006020808385031215610cc9578182fd5b823567ffffffffffffffff80821115610ce0578384fd5b818501915085601f830112610cf3578384fd5b813581811115610d0557610d05610f9c565b8060051b604051601f19603f83011681018181108582111715610d2a57610d2a610f9c565b604052828152858101935084860182860187018a1015610d48578788fd5b8795505b83861015610d6a578035855260019590950194938601938601610d4c565b5098975050505050505050565b6000815180845260208085019450808401835b83811015610da657815187529582019590820190600101610d8a565b509495945050505050565b6001600160a01b0384168152606060208201819052600090610dd590830185610d77565b8281036040840152610de78185610d77565b9695505050505050565b6001600160a01b0384168152608060208201819052600090610e1590830185610d77565b8281036040840152610e278185610d77565b8381036060909401939093525081526020019392505050565b604081526000610e536040830185610d77565b8281036020840152610e658185610d77565b95945050505050565b6020808252602e908201527f496e697469616c697a61626c653a20636f6e747261637420697320616c72656160408201526d191e481a5b9a5d1a585b1a5e995960921b606082015260800190565b6020808252818101527f4f776e61626c653a2063616c6c6572206973206e6f7420746865206f776e6572604082015260600190565b6020808252602b908201527f496e697469616c697a61626c653a20636f6e7472616374206973206e6f74206960408201526a6e697469616c697a696e6760a81b606082015260800190565b60008219821115610f4f57610f4f610f86565b500190565b600082821015610f6657610f66610f86565b500390565b6000600019821415610f7f57610f7f610f86565b5060010190565b634e487b7160e01b600052601160045260246000fd5b634e487b7160e01b600052604160045260246000fdfea264697066735822122056dc48439890086eff8a46c9053f4f8b693543fdcd28e9b4d885ef904996b2a564736f6c63430008040033","abi":[{"anonymous":false,"inputs":[{"indexed":true,"internalType":"address","name":"by","type":"address"},{"indexed":false,"internalType":"uint256[]","name":"tokenIds","type":"uint256[]"},{"indexed":false,"internalType":"uint256[]","name":"values","type":"uint256[]"}],"name":"ComicsBurned","type":"event"},{"anonymous":false,"inputs":[{"indexed":false,"internalType":"uint8","name":"version","type":"uint8"}],"name":"Initialized","type":"event"},{"anonymous":false,"inputs":[{"indexed":true,"internalType":"address","name":"by","type":"address"},{"indexed":false,"internalType":"uint256[]","name":"tokenIds","type":"uint256[]"},{"indexed":false,"internalType":"uint256[]","name":"values","type":"uint256[]"}],"name":"ItemMinted","type":"event"},{"anonymous":false,"inputs":[{"indexed":true,"internalType":"address","name":"by","type":"address"},{"indexed":false,"internalType":"uint256","name":"tokenId","type":"uint256"},{"indexed":false,"internalType":"uint256","name":"value","type":"uint256"}],"name":"KeyMinted","type":"event"},{"anonymous":false,"inputs":[{"indexed":true,"internalType":"address","name":"previousOwner","type":"address"},{"indexed":true,"internalType":"address","name":"newOwner","type":"address"}],"name":"OwnershipTransferred","type":"event"},{"anonymous":false,"inputs":[{"indexed":false,"internalType":"address","name":"account","type":"address"}],"name":"Paused","type":"event"},{"anonymous":false,"inputs":[{"indexed":false,"internalType":"address","name":"account","type":"address"}],"name":"Unpaused","type":"event"},{"inputs":[{"internalType":"uint256[]","name":"_values","type":"uint256[]"}],"name":"burnComics","outputs":[],"stateMutability":"nonpayable","type":"function"},{"inputs":[],"name":"burningEndAt","outputs":[{"internalType":"uint256","name":"","type":"uint256"}],"stateMutability":"view","type":"function"},{"inputs":[],"name":"burningStartAt","outputs":[{"internalType":"uint256","name":"","type":"uint256"}],"stateMutability":"view","type":"function"},{"inputs":[],"name":"comics","outputs":[{"internalType":"address","name":"","type":"address"}],"stateMutability":"view","type":"function"},{"inputs":[{"internalType":"address","name":"_comics","type":"address"},{"internalType":"address","name":"_keys","type":"address"},{"internalType":"address","name":"_items","type":"address"},{"internalType":"uint256","name":"_burningStartAt","type":"uint256"}],"name":"initialize","outputs":[],"stateMutability":"nonpayable","type":"function"},{"inputs":[],"name":"items","outputs":[{"internalType":"address","name":"","type":"address"}],"stateMutability":"view","type":"function"},{"inputs":[],"name":"keys","outputs":[{"internalType":"address","name":"","type":"address"}],"stateMutability":"view","type":"function"},{"inputs":[],"name":"owner","outputs":[{"internalType":"address","name":"","type":"address"}],"stateMutability":"view","type":"function"},{"inputs":[],"name":"pause","outputs":[],"stateMutability":"nonpayable","type":"function"},{"inputs":[],"name":"paused","outputs":[{"internalType":"bool","name":"","type":"bool"}],"stateMutability":"view","type":"function"},{"inputs":[],"name":"renounceOwnership","outputs":[],"stateMutability":"nonpayable","type":"function"},{"inputs":[{"internalType":"address","name":"newOwner","type":"address"}],"name":"transferOwnership","outputs":[],"stateMutability":"nonpayable","type":"function"},{"inputs":[],"name":"unpause","outputs":[],"stateMutability":"nonpayable","type":"function"}]}