{"address":"0x1f5251A76a955C45f17fDA904002DC980933EBC1","bytecode":"0x60806040523480156200001157600080fd5b5060405162002ba038038062002ba08339810160408190526200003491620002a1565b80620000408162000081565b506200004e6000336200009a565b6200007a7f9f2df0fed2c77648de5860a4cc508cd0818c85b8b8a1ab4ceeef8d981c8956a6336200009a565b50620003ca565b805162000096906004906020840190620001fb565b5050565b620000b18282620000dd60201b62000a2b1760201c565b6000828152600160209081526040909120620000d891839062000a35620000e9821b17901c565b505050565b62000096828262000109565b600062000100836001600160a01b038416620001a9565b90505b92915050565b6000828152602081815260408083206001600160a01b038516845290915290205460ff1662000096576000828152602081815260408083206001600160a01b03851684529091529020805460ff19166001179055620001653390565b6001600160a01b0316816001600160a01b0316837f2f8788117e7eff1d82e926ec794901d17c78024a50270940304540a733656f0d60405160405180910390a45050565b6000818152600183016020526040812054620001f25750815460018181018455600084815260208082209093018490558454848252828601909352604090209190915562000103565b50600062000103565b828054620002099062000377565b90600052602060002090601f0160209004810192826200022d576000855562000278565b82601f106200024857805160ff191683800117855562000278565b8280016001018555821562000278579182015b82811115620002785782518255916020019190600101906200025b565b50620002869291506200028a565b5090565b5b808211156200028657600081556001016200028b565b60006020808385031215620002b4578182fd5b82516001600160401b0380821115620002cb578384fd5b818501915085601f830112620002df578384fd5b815181811115620002f457620002f4620003b4565b604051601f8201601f19908116603f011681019083821181831017156200031f576200031f620003b4565b81604052828152888684870101111562000337578687fd5b8693505b828410156200035a57848401860151818501870152928501926200033b565b828411156200036b57868684830101525b98975050505050505050565b600181811c908216806200038c57607f821691505b60208210811415620003ae57634e487b7160e01b600052602260045260246000fd5b50919050565b634e487b7160e01b600052604160045260246000fd5b6127c680620003da6000396000f3fe608060405234801561001057600080fd5b50600436106101415760003560e01c8063731133e9116100b8578063ca15c8731161007c578063ca15c873146102d2578063d5391393146102e5578063d547741f1461030c578063e985e9c51461031f578063f242432a1461035b578063f5298aca1461036e57600080fd5b8063731133e9146102665780639010d07c1461027957806391d14854146102a4578063a217fddf146102b7578063a22cb465146102bf57600080fd5b8063248a9ca31161010a578063248a9ca3146101d75780632eb2c2d6146101fa5780632f2ff15d1461020d57806336568abe146102205780634e1273f4146102335780636b20c4541461025357600080fd5b8062fdd58e1461014657806301ffc9a71461016c57806302fe53051461018f5780630e89341c146101a45780631f7fdffa146101c4575b600080fd5b610159610154366004611f1b565b610381565b6040519081526020015b60405180910390f35b61017f61017a3660046120ed565b61041d565b6040519015158152602001610163565b6101a261019d366004612125565b610428565b005b6101b76101b2366004612092565b610441565b6040516101639190612331565b6101a26101d2366004611e4d565b6104d5565b6101596101e5366004612092565b60009081526020819052604090206001015490565b6101a2610208366004611cd6565b61055d565b6101a261021b3660046120aa565b6105f4565b6101a261022e3660046120aa565b61061b565b610246610241366004611fc8565b61063d565b60405161016391906122f0565b6101a2610261366004611ddd565b61079e565b6101a2610274366004611f76565b6107e1565b61028c6102873660046120cc565b610863565b6040516001600160a01b039091168152602001610163565b61017f6102b23660046120aa565b610882565b610159600081565b6101a26102cd366004611ee1565b6108ab565b6101596102e0366004612092565b610982565b6101597f9f2df0fed2c77648de5860a4cc508cd0818c85b8b8a1ab4ceeef8d981c8956a681565b6101a261031a3660046120aa565b610999565b61017f61032d366004611ca4565b6001600160a01b03918216600090815260036020908152604080832093909416825291909152205460ff1690565b6101a2610369366004611d7b565b6109a3565b6101a261037c366004611f44565b6109e8565b60006001600160a01b0383166103f25760405162461bcd60e51b815260206004820152602b60248201527f455243313135353a2062616c616e636520717565727920666f7220746865207a60448201526a65726f206164647265737360a81b60648201526084015b60405180910390fd5b5060008181526002602090815260408083206001600160a01b03861684529091529020545b92915050565b600061041782610a4a565b60006104348133610a8a565b61043d82610aee565b5050565b60606004805461045090612628565b80601f016020809104026020016040519081016040528092919081815260200182805461047c90612628565b80156104c95780601f1061049e576101008083540402835291602001916104c9565b820191906000526020600020905b8154815290600101906020018083116104ac57829003601f168201915b50505050509050919050565b6104ff7f9f2df0fed2c77648de5860a4cc508cd0818c85b8b8a1ab4ceeef8d981c8956a633610882565b61054b5760405162461bcd60e51b815260206004820152601d60248201527f4d7573742068617665206d696e74657220726f6c6520746f206d696e7400000060448201526064016103e9565b61055784848484610b01565b50505050565b6001600160a01b0385163314806105795750610579853361032d565b6105e05760405162461bcd60e51b815260206004820152603260248201527f455243313135353a207472616e736665722063616c6c6572206973206e6f74206044820152711bdddb995c881b9bdc88185c1c1c9bdd995960721b60648201526084016103e9565b6105ed8585858585610c69565b5050505050565b6105fe8282610e24565b60008281526001602052604090206106169082610a35565b505050565b6106258282610e4a565b60008281526001602052604090206106169082610ec4565b606081518351146106a25760405162461bcd60e51b815260206004820152602960248201527f455243313135353a206163636f756e747320616e6420696473206c656e677468604482015268040dad2e6dac2e8c6d60bb1b60648201526084016103e9565b600083516001600160401b038111156106cb57634e487b7160e01b600052604160045260246000fd5b6040519080825280602002602001820160405280156106f4578160200160208202803683370190505b50905060005b84518110156107965761075b85828151811061072657634e487b7160e01b600052603260045260246000fd5b602002602001015185838151811061074e57634e487b7160e01b600052603260045260246000fd5b6020026020010151610381565b82828151811061077b57634e487b7160e01b600052603260045260246000fd5b602090810291909101015261078f8161268f565b90506106fa565b509392505050565b6001600160a01b0383163314806107ba57506107ba833361032d565b6107d65760405162461bcd60e51b81526004016103e9906123d0565b610616838383610ed9565b61080b7f9f2df0fed2c77648de5860a4cc508cd0818c85b8b8a1ab4ceeef8d981c8956a633610882565b6108575760405162461bcd60e51b815260206004820152601d60248201527f4d7573742068617665206d696e74657220726f6c6520746f206d696e7400000060448201526064016103e9565b61055784848484611074565b600082815260016020526040812061087b9083611146565b9392505050565b6000918252602082815260408084206001600160a01b0393909316845291905290205460ff1690565b336001600160a01b03831614156109165760405162461bcd60e51b815260206004820152602960248201527f455243313135353a2073657474696e6720617070726f76616c20737461747573604482015268103337b91039b2b63360b91b60648201526084016103e9565b3360008181526003602090815260408083206001600160a01b03871680855290835292819020805460ff191686151590811790915590519081529192917f17307eab39ab6107e8899845ad3d59bd9653f200f220920489ca2b5937696c31910160405180910390a35050565b600081815260016020526040812061041790611152565b610625828261115c565b6001600160a01b0385163314806109bf57506109bf853361032d565b6109db5760405162461bcd60e51b81526004016103e9906123d0565b6105ed8585858585611182565b6001600160a01b038316331480610a045750610a04833361032d565b610a205760405162461bcd60e51b81526004016103e9906123d0565b6106168383836112a3565b61043d82826113a9565b600061087b836001600160a01b03841661142d565b60006001600160e01b03198216636cdb3d1360e11b1480610a7b57506001600160e01b031982166303a24d0760e21b145b8061041757506104178261147c565b610a948282610882565b61043d57610aac816001600160a01b031660146114a1565b610ab78360206114a1565b604051602001610ac89291906121d8565b60408051601f198184030181529082905262461bcd60e51b82526103e991600401612331565b805161043d906004906020840190611aff565b6001600160a01b038416610b275760405162461bcd60e51b81526004016103e990612533565b8151835114610b485760405162461bcd60e51b81526004016103e9906124eb565b3360005b8451811015610c0157838181518110610b7557634e487b7160e01b600052603260045260246000fd5b602002602001015160026000878481518110610ba157634e487b7160e01b600052603260045260246000fd5b602002602001015181526020019081526020016000206000886001600160a01b03166001600160a01b031681526020019081526020016000206000828254610be99190612597565b90915550819050610bf98161268f565b915050610b4c565b50846001600160a01b031660006001600160a01b0316826001600160a01b03167f4a39dc06d4c0dbc64b70af90fd698a233a518aa5d07e595d983b8c0526c8f7fb8787604051610c52929190612303565b60405180910390a46105ed81600087878787611682565b8151835114610c8a5760405162461bcd60e51b81526004016103e9906124eb565b6001600160a01b038416610cb05760405162461bcd60e51b81526004016103e990612419565b3360005b8451811015610db6576000858281518110610cdf57634e487b7160e01b600052603260045260246000fd5b602002602001015190506000858381518110610d0b57634e487b7160e01b600052603260045260246000fd5b60209081029190910181015160008481526002835260408082206001600160a01b038e168352909352919091205490915081811015610d5c5760405162461bcd60e51b81526004016103e9906124a1565b60008381526002602090815260408083206001600160a01b038e8116855292528083208585039055908b16825281208054849290610d9b908490612597565b9250508190555050505080610daf9061268f565b9050610cb4565b50846001600160a01b0316866001600160a01b0316826001600160a01b03167f4a39dc06d4c0dbc64b70af90fd698a233a518aa5d07e595d983b8c0526c8f7fb8787604051610e06929190612303565b60405180910390a4610e1c818787878787611682565b505050505050565b600082815260208190526040902060010154610e408133610a8a565b61061683836113a9565b6001600160a01b0381163314610eba5760405162461bcd60e51b815260206004820152602f60248201527f416363657373436f6e74726f6c3a2063616e206f6e6c792072656e6f756e636560448201526e103937b632b9903337b91039b2b63360891b60648201526084016103e9565b61043d82826117ed565b600061087b836001600160a01b038416611852565b6001600160a01b038316610eff5760405162461bcd60e51b81526004016103e99061245e565b8051825114610f205760405162461bcd60e51b81526004016103e9906124eb565b604080516020810190915260009081905233905b8351811015611015576000848281518110610f5f57634e487b7160e01b600052603260045260246000fd5b602002602001015190506000848381518110610f8b57634e487b7160e01b600052603260045260246000fd5b60209081029190910181015160008481526002835260408082206001600160a01b038c168352909352919091205490915081811015610fdc5760405162461bcd60e51b81526004016103e99061238c565b60009283526002602090815260408085206001600160a01b038b168652909152909220910390558061100d8161268f565b915050610f34565b5060006001600160a01b0316846001600160a01b0316826001600160a01b03167f4a39dc06d4c0dbc64b70af90fd698a233a518aa5d07e595d983b8c0526c8f7fb8686604051611066929190612303565b60405180910390a450505050565b6001600160a01b03841661109a5760405162461bcd60e51b81526004016103e990612533565b336110b4816000876110ab8861196f565b6105ed8861196f565b60008481526002602090815260408083206001600160a01b0389168452909152812080548592906110e6908490612597565b909155505060408051858152602081018590526001600160a01b0380881692600092918516917fc3d58168c5ae7397731d063d5bbf3d657854427343f4c083240f7aacaa2d0f62910160405180910390a46105ed816000878787876119c8565b600061087b8383611a92565b6000610417825490565b6000828152602081905260409020600101546111788133610a8a565b61061683836117ed565b6001600160a01b0384166111a85760405162461bcd60e51b81526004016103e990612419565b336111b88187876110ab8861196f565b60008481526002602090815260408083206001600160a01b038a168452909152902054838110156111fb5760405162461bcd60e51b81526004016103e9906124a1565b60008581526002602090815260408083206001600160a01b038b811685529252808320878503905590881682528120805486929061123a908490612597565b909155505060408051868152602081018690526001600160a01b03808916928a821692918616917fc3d58168c5ae7397731d063d5bbf3d657854427343f4c083240f7aacaa2d0f62910160405180910390a461129a8288888888886119c8565b50505050505050565b6001600160a01b0383166112c95760405162461bcd60e51b81526004016103e99061245e565b336112f9818560006112da8761196f565b6112e38761196f565b5050604080516020810190915260009052505050565b60008381526002602090815260408083206001600160a01b03881684529091529020548281101561133c5760405162461bcd60e51b81526004016103e99061238c565b60008481526002602090815260408083206001600160a01b03898116808652918452828520888703905582518981529384018890529092908616917fc3d58168c5ae7397731d063d5bbf3d657854427343f4c083240f7aacaa2d0f62910160405180910390a45050505050565b6113b38282610882565b61043d576000828152602081815260408083206001600160a01b03851684529091529020805460ff191660011790556113e93390565b6001600160a01b0316816001600160a01b0316837f2f8788117e7eff1d82e926ec794901d17c78024a50270940304540a733656f0d60405160405180910390a45050565b600081815260018301602052604081205461147457508154600181810184556000848152602080822090930184905584548482528286019093526040902091909155610417565b506000610417565b60006001600160e01b03198216635a05180f60e01b1480610417575061041782611aca565b606060006114b08360026125af565b6114bb906002612597565b6001600160401b038111156114e057634e487b7160e01b600052604160045260246000fd5b6040519080825280601f01601f19166020018201604052801561150a576020820181803683370190505b509050600360fc1b8160008151811061153357634e487b7160e01b600052603260045260246000fd5b60200101906001600160f81b031916908160001a905350600f60fb1b8160018151811061157057634e487b7160e01b600052603260045260246000fd5b60200101906001600160f81b031916908160001a90535060006115948460026125af565b61159f906001612597565b90505b6001811115611633576f181899199a1a9b1b9c1cb0b131b232b360811b85600f16601081106115e157634e487b7160e01b600052603260045260246000fd5b1a60f81b82828151811061160557634e487b7160e01b600052603260045260246000fd5b60200101906001600160f81b031916908160001a90535060049490941c9361162c81612611565b90506115a2565b50831561087b5760405162461bcd60e51b815260206004820181905260248201527f537472696e67733a20686578206c656e67746820696e73756666696369656e7460448201526064016103e9565b6001600160a01b0384163b15610e1c5760405163bc197c8160e01b81526001600160a01b0385169063bc197c81906116c6908990899088908890889060040161224d565b602060405180830381600087803b1580156116e057600080fd5b505af1925050508015611710575060408051601f3d908101601f1916820190925261170d91810190612109565b60015b6117bd5761171c6126d6565b806308c379a0141561175657506117316126ee565b8061173c5750611758565b8060405162461bcd60e51b81526004016103e99190612331565b505b60405162461bcd60e51b815260206004820152603460248201527f455243313135353a207472616e7366657220746f206e6f6e20455243313135356044820152732932b1b2b4bb32b91034b6b83632b6b2b73a32b960611b60648201526084016103e9565b6001600160e01b0319811663bc197c8160e01b1461129a5760405162461bcd60e51b81526004016103e990612344565b6117f78282610882565b1561043d576000828152602081815260408083206001600160a01b0385168085529252808320805460ff1916905551339285917ff6391f5c32d9c69d2a47ea670b442974b53935d1edc7fd64eb21e047a839171b9190a45050565b600081815260018301602052604081205480156119655760006118766001836125ce565b855490915060009061188a906001906125ce565b905081811461190b5760008660000182815481106118b857634e487b7160e01b600052603260045260246000fd5b90600052602060002001549050808760000184815481106118e957634e487b7160e01b600052603260045260246000fd5b6000918252602080832090910192909255918252600188019052604090208390555b855486908061192a57634e487b7160e01b600052603160045260246000fd5b600190038181906000526020600020016000905590558560010160008681526020019081526020016000206000905560019350505050610417565b6000915050610417565b604080516001808252818301909252606091600091906020808301908036833701905050905082816000815181106119b757634e487b7160e01b600052603260045260246000fd5b602090810291909101015292915050565b6001600160a01b0384163b15610e1c5760405163f23a6e6160e01b81526001600160a01b0385169063f23a6e6190611a0c90899089908890889088906004016122ab565b602060405180830381600087803b158015611a2657600080fd5b505af1925050508015611a56575060408051601f3d908101601f19168201909252611a5391810190612109565b60015b611a625761171c6126d6565b6001600160e01b0319811663f23a6e6160e01b1461129a5760405162461bcd60e51b81526004016103e990612344565b6000826000018281548110611ab757634e487b7160e01b600052603260045260246000fd5b9060005260206000200154905092915050565b60006001600160e01b03198216637965db0b60e01b148061041757506301ffc9a760e01b6001600160e01b0319831614610417565b828054611b0b90612628565b90600052602060002090601f016020900481019282611b2d5760008555611b73565b82601f10611b4657805160ff1916838001178555611b73565b82800160010185558215611b73579182015b82811115611b73578251825591602001919060010190611b58565b50611b7f929150611b83565b5090565b5b80821115611b7f5760008155600101611b84565b60006001600160401b03831115611bb157611bb16126c0565b604051611bc8601f8501601f191660200182612663565b809150838152848484011115611bdd57600080fd5b83836020830137600060208583010152509392505050565b80356001600160a01b0381168114611c0c57600080fd5b919050565b600082601f830112611c21578081fd5b81356020611c2e82612574565b604051611c3b8282612663565b8381528281019150858301600585901b87018401881015611c5a578586fd5b855b85811015611c7857813584529284019290840190600101611c5c565b5090979650505050505050565b600082601f830112611c95578081fd5b61087b83833560208501611b98565b60008060408385031215611cb6578182fd5b611cbf83611bf5565b9150611ccd60208401611bf5565b90509250929050565b600080600080600060a08688031215611ced578081fd5b611cf686611bf5565b9450611d0460208701611bf5565b935060408601356001600160401b0380821115611d1f578283fd5b611d2b89838a01611c11565b94506060880135915080821115611d40578283fd5b611d4c89838a01611c11565b93506080880135915080821115611d61578283fd5b50611d6e88828901611c85565b9150509295509295909350565b600080600080600060a08688031215611d92578081fd5b611d9b86611bf5565b9450611da960208701611bf5565b9350604086013592506060860135915060808601356001600160401b03811115611dd1578182fd5b611d6e88828901611c85565b600080600060608486031215611df1578283fd5b611dfa84611bf5565b925060208401356001600160401b0380821115611e15578384fd5b611e2187838801611c11565b93506040860135915080821115611e36578283fd5b50611e4386828701611c11565b9150509250925092565b60008060008060808587031215611e62578384fd5b611e6b85611bf5565b935060208501356001600160401b0380821115611e86578485fd5b611e9288838901611c11565b94506040870135915080821115611ea7578384fd5b611eb388838901611c11565b93506060870135915080821115611ec8578283fd5b50611ed587828801611c85565b91505092959194509250565b60008060408385031215611ef3578182fd5b611efc83611bf5565b915060208301358015158114611f10578182fd5b809150509250929050565b60008060408385031215611f2d578182fd5b611f3683611bf5565b946020939093013593505050565b600080600060608486031215611f58578081fd5b611f6184611bf5565b95602085013595506040909401359392505050565b60008060008060808587031215611f8b578182fd5b611f9485611bf5565b9350602085013592506040850135915060608501356001600160401b03811115611fbc578182fd5b611ed587828801611c85565b60008060408385031215611fda578182fd5b82356001600160401b0380821115611ff0578384fd5b818501915085601f830112612003578384fd5b8135602061201082612574565b60405161201d8282612663565b8381528281019150858301600585901b870184018b101561203c578889fd5b8896505b848710156120655761205181611bf5565b835260019690960195918301918301612040565b509650508601359250508082111561207b578283fd5b5061208885828601611c11565b9150509250929050565b6000602082840312156120a3578081fd5b5035919050565b600080604083850312156120bc578182fd5b82359150611ccd60208401611bf5565b600080604083850312156120de578182fd5b50508035926020909101359150565b6000602082840312156120fe578081fd5b813561087b81612777565b60006020828403121561211a578081fd5b815161087b81612777565b600060208284031215612136578081fd5b81356001600160401b0381111561214b578182fd5b8201601f8101841361215b578182fd5b61216a84823560208401611b98565b949350505050565b6000815180845260208085019450808401835b838110156121a157815187529582019590820190600101612185565b509495945050505050565b600081518084526121c48160208601602086016125e5565b601f01601f19169290920160200192915050565b7f416363657373436f6e74726f6c3a206163636f756e74200000000000000000008152600083516122108160178501602088016125e5565b7001034b99036b4b9b9b4b733903937b6329607d1b60179184019182015283516122418160288401602088016125e5565b01602801949350505050565b6001600160a01b0386811682528516602082015260a06040820181905260009061227990830186612172565b828103606084015261228b8186612172565b9050828103608084015261229f81856121ac565b98975050505050505050565b6001600160a01b03868116825285166020820152604081018490526060810183905260a0608082018190526000906122e5908301846121ac565b979650505050505050565b60208152600061087b6020830184612172565b6040815260006123166040830185612172565b82810360208401526123288185612172565b95945050505050565b60208152600061087b60208301846121ac565b60208082526028908201527f455243313135353a204552433131353552656365697665722072656a656374656040820152676420746f6b656e7360c01b606082015260800190565b60208082526024908201527f455243313135353a206275726e20616d6f756e7420657863656564732062616c604082015263616e636560e01b606082015260800190565b60208082526029908201527f455243313135353a2063616c6c6572206973206e6f74206f776e6572206e6f7260408201526808185c1c1c9bdd995960ba1b606082015260800190565b60208082526025908201527f455243313135353a207472616e7366657220746f20746865207a65726f206164604082015264647265737360d81b606082015260800190565b60208082526023908201527f455243313135353a206275726e2066726f6d20746865207a65726f206164647260408201526265737360e81b606082015260800190565b6020808252602a908201527f455243313135353a20696e73756666696369656e742062616c616e636520666f60408201526939103a3930b739b332b960b11b606082015260800190565b60208082526028908201527f455243313135353a2069647320616e6420616d6f756e7473206c656e677468206040820152670dad2e6dac2e8c6d60c31b606082015260800190565b60208082526021908201527f455243313135353a206d696e7420746f20746865207a65726f206164647265736040820152607360f81b606082015260800190565b60006001600160401b0382111561258d5761258d6126c0565b5060051b60200190565b600082198211156125aa576125aa6126aa565b500190565b60008160001904831182151516156125c9576125c96126aa565b500290565b6000828210156125e0576125e06126aa565b500390565b60005b838110156126005781810151838201526020016125e8565b838111156105575750506000910152565b600081612620576126206126aa565b506000190190565b600181811c9082168061263c57607f821691505b6020821081141561265d57634e487b7160e01b600052602260045260246000fd5b50919050565b601f8201601f191681016001600160401b0381118282101715612688576126886126c0565b6040525050565b60006000198214156126a3576126a36126aa565b5060010190565b634e487b7160e01b600052601160045260246000fd5b634e487b7160e01b600052604160045260246000fd5b600060033d11156126eb57600481823e5160e01c5b90565b600060443d10156126fc5790565b6040516003193d81016004833e81513d6001600160401b03816024840111818411171561272b57505050505090565b82850191508151818111156127435750505050505090565b843d870101602082850101111561275d5750505050505090565b61276c60208286010187612663565b509095945050505050565b6001600160e01b03198116811461278d57600080fd5b5056fea264697066735822122051797a2983d839bf600160e078d40ef886dedb77e9e3614911b67cc259f96e0f64736f6c63430008040033","abi":[{"inputs":[{"internalType":"string","name":"uri","type":"string"}],"stateMutability":"nonpayable","type":"constructor"},{"anonymous":false,"inputs":[{"indexed":true,"internalType":"address","name":"account","type":"address"},{"indexed":true,"internalType":"address","name":"operator","type":"address"},{"indexed":false,"internalType":"bool","name":"approved","type":"bool"}],"name":"ApprovalForAll","type":"event"},{"anonymous":false,"inputs":[{"indexed":true,"internalType":"bytes32","name":"role","type":"bytes32"},{"indexed":true,"internalType":"bytes32","name":"previousAdminRole","type":"bytes32"},{"indexed":true,"internalType":"bytes32","name":"newAdminRole","type":"bytes32"}],"name":"RoleAdminChanged","type":"event"},{"anonymous":false,"inputs":[{"indexed":true,"internalType":"bytes32","name":"role","type":"bytes32"},{"indexed":true,"internalType":"address","name":"account","type":"address"},{"indexed":true,"internalType":"address","name":"sender","type":"address"}],"name":"RoleGranted","type":"event"},{"anonymous":false,"inputs":[{"indexed":true,"internalType":"bytes32","name":"role","type":"bytes32"},{"indexed":true,"internalType":"address","name":"account","type":"address"},{"indexed":true,"internalType":"address","name":"sender","type":"address"}],"name":"RoleRevoked","type":"event"},{"anonymous":false,"inputs":[{"indexed":true,"internalType":"address","name":"operator","type":"address"},{"indexed":true,"internalType":"address","name":"from","type":"address"},{"indexed":true,"internalType":"address","name":"to","type":"address"},{"indexed":false,"internalType":"uint256[]","name":"ids","type":"uint256[]"},{"indexed":false,"internalType":"uint256[]","name":"values","type":"uint256[]"}],"name":"TransferBatch","type":"event"},{"anonymous":false,"inputs":[{"indexed":true,"internalType":"address","name":"operator","type":"address"},{"indexed":true,"internalType":"address","name":"from","type":"address"},{"indexed":true,"internalType":"address","name":"to","type":"address"},{"indexed":false,"internalType":"uint256","name":"id","type":"uint256"},{"indexed":false,"internalType":"uint256","name":"value","type":"uint256"}],"name":"TransferSingle","type":"event"},{"anonymous":false,"inputs":[{"indexed":false,"internalType":"string","name":"value","type":"string"},{"indexed":true,"internalType":"uint256","name":"id","type":"uint256"}],"name":"URI","type":"event"},{"inputs":[],"name":"DEFAULT_ADMIN_ROLE","outputs":[{"internalType":"bytes32","name":"","type":"bytes32"}],"stateMutability":"view","type":"function"},{"inputs":[],"name":"MINTER_ROLE","outputs":[{"internalType":"bytes32","name":"","type":"bytes32"}],"stateMutability":"view","type":"function"},{"inputs":[{"internalType":"address","name":"account","type":"address"},{"internalType":"uint256","name":"id","type":"uint256"}],"name":"balanceOf","outputs":[{"internalType":"uint256","name":"","type":"uint256"}],"stateMutability":"view","type":"function"},{"inputs":[{"internalType":"address[]","name":"accounts","type":"address[]"},{"internalType":"uint256[]","name":"ids","type":"uint256[]"}],"name":"balanceOfBatch","outputs":[{"internalType":"uint256[]","name":"","type":"uint256[]"}],"stateMutability":"view","type":"function"},{"inputs":[{"internalType":"address","name":"account","type":"address"},{"internalType":"uint256","name":"id","type":"uint256"},{"internalType":"uint256","name":"value","type":"uint256"}],"name":"burn","outputs":[],"stateMutability":"nonpayable","type":"function"},{"inputs":[{"internalType":"address","name":"account","type":"address"},{"internalType":"uint256[]","name":"ids","type":"uint256[]"},{"internalType":"uint256[]","name":"values","type":"uint256[]"}],"name":"burnBatch","outputs":[],"stateMutability":"nonpayable","type":"function"},{"inputs":[{"internalType":"bytes32","name":"role","type":"bytes32"}],"name":"getRoleAdmin","outputs":[{"internalType":"bytes32","name":"","type":"bytes32"}],"stateMutability":"view","type":"function"},{"inputs":[{"internalType":"bytes32","name":"role","type":"bytes32"},{"internalType":"uint256","name":"index","type":"uint256"}],"name":"getRoleMember","outputs":[{"internalType":"address","name":"","type":"address"}],"stateMutability":"view","type":"function"},{"inputs":[{"internalType":"bytes32","name":"role","type":"bytes32"}],"name":"getRoleMemberCount","outputs":[{"internalType":"uint256","name":"","type":"uint256"}],"stateMutability":"view","type":"function"},{"inputs":[{"internalType":"bytes32","name":"role","type":"bytes32"},{"internalType":"address","name":"account","type":"address"}],"name":"grantRole","outputs":[],"stateMutability":"nonpayable","type":"function"},{"inputs":[{"internalType":"bytes32","name":"role","type":"bytes32"},{"internalType":"address","name":"account","type":"address"}],"name":"hasRole","outputs":[{"internalType":"bool","name":"","type":"bool"}],"stateMutability":"view","type":"function"},{"inputs":[{"internalType":"address","name":"account","type":"address"},{"internalType":"address","name":"operator","type":"address"}],"name":"isApprovedForAll","outputs":[{"internalType":"bool","name":"","type":"bool"}],"stateMutability":"view","type":"function"},{"inputs":[{"internalType":"address","name":"to","type":"address"},{"internalType":"uint256","name":"id","type":"uint256"},{"internalType":"uint256","name":"amount","type":"uint256"},{"internalType":"bytes","name":"data","type":"bytes"}],"name":"mint","outputs":[],"stateMutability":"nonpayable","type":"function"},{"inputs":[{"internalType":"address","name":"to","type":"address"},{"internalType":"uint256[]","name":"ids","type":"uint256[]"},{"internalType":"uint256[]","name":"amounts","type":"uint256[]"},{"internalType":"bytes","name":"data","type":"bytes"}],"name":"mintBatch","outputs":[],"stateMutability":"nonpayable","type":"function"},{"inputs":[{"internalType":"bytes32","name":"role","type":"bytes32"},{"internalType":"address","name":"account","type":"address"}],"name":"renounceRole","outputs":[],"stateMutability":"nonpayable","type":"function"},{"inputs":[{"internalType":"bytes32","name":"role","type":"bytes32"},{"internalType":"address","name":"account","type":"address"}],"name":"revokeRole","outputs":[],"stateMutability":"nonpayable","type":"function"},{"inputs":[{"internalType":"address","name":"from","type":"address"},{"internalType":"address","name":"to","type":"address"},{"internalType":"uint256[]","name":"ids","type":"uint256[]"},{"internalType":"uint256[]","name":"amounts","type":"uint256[]"},{"internalType":"bytes","name":"data","type":"bytes"}],"name":"safeBatchTransferFrom","outputs":[],"stateMutability":"nonpayable","type":"function"},{"inputs":[{"internalType":"address","name":"from","type":"address"},{"internalType":"address","name":"to","type":"address"},{"internalType":"uint256","name":"id","type":"uint256"},{"internalType":"uint256","name":"amount","type":"uint256"},{"internalType":"bytes","name":"data","type":"bytes"}],"name":"safeTransferFrom","outputs":[],"stateMutability":"nonpayable","type":"function"},{"inputs":[{"internalType":"address","name":"operator","type":"address"},{"internalType":"bool","name":"approved","type":"bool"}],"name":"setApprovalForAll","outputs":[],"stateMutability":"nonpayable","type":"function"},{"inputs":[{"internalType":"string","name":"newuri","type":"string"}],"name":"setURI","outputs":[],"stateMutability":"nonpayable","type":"function"},{"inputs":[{"internalType":"bytes4","name":"interfaceId","type":"bytes4"}],"name":"supportsInterface","outputs":[{"internalType":"bool","name":"","type":"bool"}],"stateMutability":"view","type":"function"},{"inputs":[{"internalType":"uint256","name":"","type":"uint256"}],"name":"uri","outputs":[{"internalType":"string","name":"","type":"string"}],"stateMutability":"view","type":"function"}]}