{"address":"0x1DeddbD06c53B21cE44e91ABA44a323310583B86","bytecode":"0x608060405234801561001057600080fd5b50611ca8806100206000396000f3fe608060405234801561001057600080fd5b50600436106101375760003560e01c80637ab56083116100b8578063bf91ad9e1161007c578063bf91ad9e14610247578063bf9dc86a14610267578063c06fad0614610287578063e77fc7a41461029a578063f01f20df146102ad578063f2fde38b146102b657600080fd5b80637ab56083146101fb5780638456cb5914610212578063868661cb1461021a5780638da5cb5b1461022357806396e851ab1461023457600080fd5b80634162169f116100ff5780634162169f146101875780634e81da0a146101b75780635c975abb146101ca57806361d027b3146101e0578063715018a6146101f357600080fd5b80630e22d59b1461013c5780630e55d70c146101515780631d8d71f0146101645780633ccfd60b146101775780633f4ba83a1461017f575b600080fd5b61014f61014a366004611974565b6102c9565b005b61014f61015f3660046118bb565b6103c5565b61014f6101723660046118bb565b61064d565b61014f610ac0565b61014f610c9f565b60ce5461019a906001600160a01b031681565b6040516001600160a01b0390911681526020015b60405180910390f35b60ca5461019a906001600160a01b031681565b60975460ff1660405190151581526020016101ae565b60cd5461019a906001600160a01b031681565b61014f610cd3565b61020460d05481565b6040519081526020016101ae565b61014f610d07565b61020460d15481565b6033546001600160a01b031661019a565b61014f6102423660046118bb565b610d39565b610204610255366004611944565b60cb6020526000908152604090205481565b610204610275366004611944565b60cc6020526000908152604090205481565b60c95461019a906001600160a01b031681565b61014f6102a836600461184d565b610ff1565b61020460cf5481565b61014f6102c4366004611833565b611131565b6033546001600160a01b031633146102fc5760405162461bcd60e51b81526004016102f390611afc565b60405180910390fd5b806103078385611ba7565b6103119190611ba7565b6103e8146103575760405162461bcd60e51b8152602060048201526013602482015272496e76616c69642070657263656e746167657360681b60448201526064016102f3565b60cf5460d05460d15460408051938452602084019290925290820152606081018490526080810183905260a0810182905233907fe40b11ca40e9f152af537db8dc8c682648bd89d6cad4587db31993922b5a7e7d9060c00160405180910390a260cf9290925560d05560d155565b6033546001600160a01b031633146103ef5760405162461bcd60e51b81526004016102f390611afc565b82811461040e5760405162461bcd60e51b81526004016102f390611b31565b60005b8381101561064657600685858381811061043b57634e487b7160e01b600052603260045260246000fd5b90506020020135116104865760405162461bcd60e51b8152602060048201526014602482015273546f6b656e204944206c657373207468616e203760601b60448201526064016102f3565b670de0b6b3a76400008383838181106104af57634e487b7160e01b600052603260045260246000fd5b9050602002013510156104fd5760405162461bcd60e51b8152602060048201526016602482015275141c9a58d9481b195cdcc81d1a185b880c481391951360521b60448201526064016102f3565b337f68d829accea5a50e994ba8f0db95e96cb144e8518d7253e83b89e7b99a8cf70086868481811061053f57634e487b7160e01b600052603260045260246000fd5b9050602002013560cb600089898781811061056a57634e487b7160e01b600052603260045260246000fd5b905060200201358152602001908152602001600020548686868181106105a057634e487b7160e01b600052603260045260246000fd5b905060200201356040516105c7939291909283526020830191909152604082015260600190565b60405180910390a28282828181106105ef57634e487b7160e01b600052603260045260246000fd5b9050602002013560cb600087878581811061061a57634e487b7160e01b600052603260045260246000fd5b90506020020135815260200190815260200160002081905550808061063e90611c41565b915050610411565b5050505050565b600260655414156106a05760405162461bcd60e51b815260206004820152601f60248201527f5265656e7472616e637947756172643a207265656e7472616e742063616c6c0060448201526064016102f3565b600260655560975460ff16156106eb5760405162461bcd60e51b815260206004820152601060248201526f14185d5cd8589b194e881c185d5cd95960821b60448201526064016102f3565b82811461070a5760405162461bcd60e51b81526004016102f390611b31565b6000805b848110156109dc57600686868381811061073857634e487b7160e01b600052603260045260246000fd5b90506020020135116107835760405162461bcd60e51b8152602060048201526014602482015273546f6b656e204944206c657373207468616e203760601b60448201526064016102f3565b600060cb60008888858181106107a957634e487b7160e01b600052603260045260246000fd5b90506020020135815260200190815260200160002054116107f95760405162461bcd60e51b815260206004820152600a6024820152695a65726f20707269636560b01b60448201526064016102f3565b60cc600087878481811061081d57634e487b7160e01b600052603260045260246000fd5b9050602002013581526020019081526020016000205484848381811061085357634e487b7160e01b600052603260045260246000fd5b60c95460209091029290920135916001600160a01b0316905063bd85b03989898681811061089157634e487b7160e01b600052603260045260246000fd5b905060200201356040518263ffffffff1660e01b81526004016108b691815260200190565b60206040518083038186803b1580156108ce57600080fd5b505afa1580156108e2573d6000803e3d6000fd5b505050506040513d601f19601f82011682018060405250810190610906919061195c565b6109109190611ba7565b11156109535760405162461bcd60e51b81526020600482015260126024820152714d617820636f756e74206f766572666c6f7760701b60448201526064016102f3565b83838281811061097357634e487b7160e01b600052603260045260246000fd5b9050602002013560cb600088888581811061099e57634e487b7160e01b600052603260045260246000fd5b905060200201358152602001908152602001600020546109be9190611bdf565b6109c89083611ba7565b9150806109d481611c41565b91505061070e565b5060ca546109f5906001600160a01b03163330846111cc565b60c95460408051602081018252600081529051630fbfeffd60e11b81526001600160a01b0390921691631f7fdffa91610a3b9133918a918a918a918a9190600401611a1b565b600060405180830381600087803b158015610a5557600080fd5b505af1158015610a69573d6000803e3d6000fd5b50505050336001600160a01b03167f2984a062306d2c08d91ade1337420532e9438d57c2dd5b19b7cb3dbb17230c9486868686604051610aac9493929190611a74565b60405180910390a250506001606555505050565b6033546001600160a01b03163314610aea5760405162461bcd60e51b81526004016102f390611afc565b60ca546040516370a0823160e01b81523060048201526000916001600160a01b0316906370a082319060240160206040518083038186803b158015610b2e57600080fd5b505afa158015610b42573d6000803e3d6000fd5b505050506040513d601f19601f82011682018060405250810190610b66919061195c565b905060006103e860cf5483610b7b9190611bdf565b610b859190611bbf565b905060006103e860d05484610b9a9190611bdf565b610ba49190611bbf565b9050600081610bb38486611bfe565b610bbd9190611bfe565b60ca54604051630852cd8d60e31b8152600481018690529192506001600160a01b0316906342966c6890602401600060405180830381600087803b158015610c0457600080fd5b505af1158015610c18573d6000803e3d6000fd5b505060cd5460ca54610c3993506001600160a01b039081169250168461123d565b60ce5460ca54610c56916001600160a01b0391821691168361123d565b604080518481526020810184905290810182905233907f63895a06532581c620ae1971802a5d56eb36cd7057450604c025260c24b333d79060600160405180910390a250505050565b6033546001600160a01b03163314610cc95760405162461bcd60e51b81526004016102f390611afc565b610cd1611272565b565b6033546001600160a01b03163314610cfd5760405162461bcd60e51b81526004016102f390611afc565b610cd16000611305565b6033546001600160a01b03163314610d315760405162461bcd60e51b81526004016102f390611afc565b610cd1611357565b6033546001600160a01b03163314610d635760405162461bcd60e51b81526004016102f390611afc565b828114610d825760405162461bcd60e51b81526004016102f390611b31565b60005b838110156106465760c9546001600160a01b031663bd85b039868684818110610dbe57634e487b7160e01b600052603260045260246000fd5b905060200201356040518263ffffffff1660e01b8152600401610de391815260200190565b60206040518083038186803b158015610dfb57600080fd5b505afa158015610e0f573d6000803e3d6000fd5b505050506040513d601f19601f82011682018060405250810190610e33919061195c565b838383818110610e5357634e487b7160e01b600052603260045260246000fd5b905060200201351015610ea85760405162461bcd60e51b815260206004820181905260248201527f4d617820636f756e74206c657373207468616e20746f74616c20737570706c7960448201526064016102f3565b337ff28265c485be16f26bcbad6982414412aa39c7d6d4b5523d38eee7938f04665c868684818110610eea57634e487b7160e01b600052603260045260246000fd5b9050602002013560cc6000898987818110610f1557634e487b7160e01b600052603260045260246000fd5b90506020020135815260200190815260200160002054868686818110610f4b57634e487b7160e01b600052603260045260246000fd5b90506020020135604051610f72939291909283526020830191909152604082015260600190565b60405180910390a2828282818110610f9a57634e487b7160e01b600052603260045260246000fd5b9050602002013560cc6000878785818110610fc557634e487b7160e01b600052603260045260246000fd5b905060200201358152602001908152602001600020819055508080610fe990611c41565b915050610d85565b6000610ffd60016113d2565b90508015611015576000805461ff0019166101001790555b61101d61145f565b61102561148e565b61102d6114bd565b816110388486611ba7565b6110429190611ba7565b6103e8146110885760405162461bcd60e51b8152602060048201526013602482015272496e76616c69642070657263656e746167657360681b60448201526064016102f3565b60c980546001600160a01b03808b166001600160a01b03199283161790925560ca80548a841690831617905560cd805489841690831617905560ce80549288169290911691909117905560cf84905560d083905560d18290558015611127576000805461ff0019169055604051600181527f7f26b83ff96e1f2b6a682f133852f6798a09c465da95921460cefb38474024989060200160405180910390a15b5050505050505050565b6033546001600160a01b0316331461115b5760405162461bcd60e51b81526004016102f390611afc565b6001600160a01b0381166111c05760405162461bcd60e51b815260206004820152602660248201527f4f776e61626c653a206e6577206f776e657220697320746865207a65726f206160448201526564647265737360d01b60648201526084016102f3565b6111c981611305565b50565b6040516001600160a01b03808516602483015283166044820152606481018290526112379085906323b872dd60e01b906084015b60408051601f198184030181529190526020810180516001600160e01b03166001600160e01b0319909316929092179091526114ec565b50505050565b6040516001600160a01b03831660248201526044810182905261126d90849063a9059cbb60e01b90606401611200565b505050565b60975460ff166112bb5760405162461bcd60e51b815260206004820152601460248201527314185d5cd8589b194e881b9bdd081c185d5cd95960621b60448201526064016102f3565b6097805460ff191690557f5db9ee0a495bf2e6ff9c91a7834c1ba4fdd244a5e8aa4e537bd38aeae4b073aa335b6040516001600160a01b03909116815260200160405180910390a1565b603380546001600160a01b038381166001600160a01b0319831681179093556040519116919082907f8be0079c531659141344cd1fd0a4f28419497f9722a3daafe3b4186f6b6457e090600090a35050565b60975460ff161561139d5760405162461bcd60e51b815260206004820152601060248201526f14185d5cd8589b194e881c185d5cd95960821b60448201526064016102f3565b6097805460ff191660011790557f62e78cea01bee320cd4e420270b5ea74000d11b0c9f74754ebdbfc544b05a2586112e83390565b60008054610100900460ff1615611419578160ff1660011480156113f55750303b155b6114115760405162461bcd60e51b81526004016102f390611aae565b506000919050565b60005460ff8084169116106114405760405162461bcd60e51b81526004016102f390611aae565b506000805460ff191660ff92909216919091179055600190565b919050565b600054610100900460ff166114865760405162461bcd60e51b81526004016102f390611b5c565b610cd16115be565b600054610100900460ff166114b55760405162461bcd60e51b81526004016102f390611b5c565b610cd16115ee565b600054610100900460ff166114e45760405162461bcd60e51b81526004016102f390611b5c565b610cd161161c565b6000611541826040518060400160405280602081526020017f5361666545524332303a206c6f772d6c6576656c2063616c6c206661696c6564815250856001600160a01b031661164f9092919063ffffffff16565b80519091501561126d578080602001905181019061155f9190611924565b61126d5760405162461bcd60e51b815260206004820152602a60248201527f5361666545524332303a204552433230206f7065726174696f6e20646964206e6044820152691bdd081cdd58d8d9595960b21b60648201526084016102f3565b600054610100900460ff166115e55760405162461bcd60e51b81526004016102f390611b5c565b610cd133611305565b600054610100900460ff166116155760405162461bcd60e51b81526004016102f390611b5c565b6001606555565b600054610100900460ff166116435760405162461bcd60e51b81526004016102f390611b5c565b6097805460ff19169055565b606061165e8484600085611668565b90505b9392505050565b6060824710156116c95760405162461bcd60e51b815260206004820152602660248201527f416464726573733a20696e73756666696369656e742062616c616e636520666f6044820152651c8818d85b1b60d21b60648201526084016102f3565b6001600160a01b0385163b6117205760405162461bcd60e51b815260206004820152601d60248201527f416464726573733a2063616c6c20746f206e6f6e2d636f6e747261637400000060448201526064016102f3565b600080866001600160a01b0316858760405161173c91906119ff565b60006040518083038185875af1925050503d8060008114611779576040519150601f19603f3d011682016040523d82523d6000602084013e61177e565b606091505b509150915061178e828286611799565b979650505050505050565b606083156117a8575081611661565b8251156117b85782518084602001fd5b8160405162461bcd60e51b81526004016102f39190611a9b565b80356001600160a01b038116811461145a57600080fd5b60008083601f8401126117fa578182fd5b50813567ffffffffffffffff811115611811578182fd5b6020830191508360208260051b850101111561182c57600080fd5b9250929050565b600060208284031215611844578081fd5b611661826117d2565b600080600080600080600060e0888a031215611867578283fd5b611870886117d2565b965061187e602089016117d2565b955061188c604089016117d2565b945061189a606089016117d2565b9699959850939660808101359560a0820135955060c0909101359350915050565b600080600080604085870312156118d0578384fd5b843567ffffffffffffffff808211156118e7578586fd5b6118f3888389016117e9565b9096509450602087013591508082111561190b578384fd5b50611918878288016117e9565b95989497509550505050565b600060208284031215611935578081fd5b81518015158114611661578182fd5b600060208284031215611955578081fd5b5035919050565b60006020828403121561196d578081fd5b5051919050565b600080600060608486031215611988578283fd5b505081359360208301359350604090920135919050565b81835260006001600160fb1b038311156119b7578081fd5b8260051b80836020870137939093016020019283525090919050565b600081518084526119eb816020860160208601611c15565b601f01601f19169290920160200192915050565b60008251611a11818460208701611c15565b9190910192915050565b6001600160a01b0387168152608060208201819052600090611a40908301878961199f565b8281036040840152611a5381868861199f565b90508281036060840152611a6781856119d3565b9998505050505050505050565b604081526000611a8860408301868861199f565b828103602084015261178e81858761199f565b60208152600061166160208301846119d3565b6020808252602e908201527f496e697469616c697a61626c653a20636f6e747261637420697320616c72656160408201526d191e481a5b9a5d1a585b1a5e995960921b606082015260800190565b6020808252818101527f4f776e61626c653a2063616c6c6572206973206e6f7420746865206f776e6572604082015260600190565b6020808252601190820152704d69736d61746368656420706172616d7360781b604082015260600190565b6020808252602b908201527f496e697469616c697a61626c653a20636f6e7472616374206973206e6f74206960408201526a6e697469616c697a696e6760a81b606082015260800190565b60008219821115611bba57611bba611c5c565b500190565b600082611bda57634e487b7160e01b81526012600452602481fd5b500490565b6000816000190483118215151615611bf957611bf9611c5c565b500290565b600082821015611c1057611c10611c5c565b500390565b60005b83811015611c30578181015183820152602001611c18565b838111156112375750506000910152565b6000600019821415611c5557611c55611c5c565b5060010190565b634e487b7160e01b600052601160045260246000fdfea2646970667358221220430e56e61309be4bcb5a56d89816ac732aa09d7bd4ab186679f74874728aae3064736f6c63430008040033","abi":[{"anonymous":false,"inputs":[{"indexed":false,"internalType":"uint8","name":"version","type":"uint8"}],"name":"Initialized","type":"event"},{"anonymous":false,"inputs":[{"indexed":true,"internalType":"address","name":"by","type":"address"},{"indexed":false,"internalType":"uint256","name":"itemId","type":"uint256"},{"indexed":false,"internalType":"uint256","name":"oldItemMaxCount","type":"uint256"},{"indexed":false,"internalType":"uint256","name":"newItemMaxCount","type":"uint256"}],"name":"ItemMaxCountSet","type":"event"},{"anonymous":false,"inputs":[{"indexed":true,"internalType":"address","name":"by","type":"address"},{"indexed":false,"internalType":"uint256","name":"itemId","type":"uint256"},{"indexed":false,"internalType":"uint256","name":"oldItemPrice","type":"uint256"},{"indexed":false,"internalType":"uint256","name":"newItemPrice","type":"uint256"}],"name":"ItemPriceSet","type":"event"},{"anonymous":false,"inputs":[{"indexed":true,"internalType":"address","name":"by","type":"address"},{"indexed":false,"internalType":"uint256[]","name":"itemIds","type":"uint256[]"},{"indexed":false,"internalType":"uint256[]","name":"amounts","type":"uint256[]"}],"name":"ItemPurchased","type":"event"},{"anonymous":false,"inputs":[{"indexed":true,"internalType":"address","name":"by","type":"address"},{"indexed":false,"internalType":"uint256","name":"burnAmount","type":"uint256"},{"indexed":false,"internalType":"uint256","name":"treasuryAmount","type":"uint256"},{"indexed":false,"internalType":"uint256","name":"daoAmount","type":"uint256"}],"name":"NFTLWitdraw","type":"event"},{"anonymous":false,"inputs":[{"indexed":true,"internalType":"address","name":"previousOwner","type":"address"},{"indexed":true,"internalType":"address","name":"newOwner","type":"address"}],"name":"OwnershipTransferred","type":"event"},{"anonymous":false,"inputs":[{"indexed":false,"internalType":"address","name":"account","type":"address"}],"name":"Paused","type":"event"},{"anonymous":false,"inputs":[{"indexed":true,"internalType":"address","name":"by","type":"address"},{"indexed":false,"internalType":"uint256","name":"oldBurnPercentage","type":"uint256"},{"indexed":false,"internalType":"uint256","name":"oldTreasuryPercentage","type":"uint256"},{"indexed":false,"internalType":"uint256","name":"oldDAOPercentage","type":"uint256"},{"indexed":false,"internalType":"uint256","name":"newBurnPercentage","type":"uint256"},{"indexed":false,"internalType":"uint256","name":"newTreasuryPercentage","type":"uint256"},{"indexed":false,"internalType":"uint256","name":"newDAOPercentage","type":"uint256"}],"name":"TokenPercentagesUpdated","type":"event"},{"anonymous":false,"inputs":[{"indexed":false,"internalType":"address","name":"account","type":"address"}],"name":"Unpaused","type":"event"},{"inputs":[],"name":"burnPercentage","outputs":[{"internalType":"uint256","name":"","type":"uint256"}],"stateMutability":"view","type":"function"},{"inputs":[],"name":"dao","outputs":[{"internalType":"address","name":"","type":"address"}],"stateMutability":"view","type":"function"},{"inputs":[],"name":"daoPercentage","outputs":[{"internalType":"uint256","name":"","type":"uint256"}],"stateMutability":"view","type":"function"},{"inputs":[{"internalType":"address","name":"_items","type":"address"},{"internalType":"address","name":"_nftl","type":"address"},{"internalType":"address","name":"_treasury","type":"address"},{"internalType":"address","name":"_dao","type":"address"},{"internalType":"uint256","name":"_burnPercentage","type":"uint256"},{"internalType":"uint256","name":"_treasuryPercentage","type":"uint256"},{"internalType":"uint256","name":"_daoPercentage","type":"uint256"}],"name":"initialize","outputs":[],"stateMutability":"nonpayable","type":"function"},{"inputs":[{"internalType":"uint256","name":"","type":"uint256"}],"name":"itemMaxCounts","outputs":[{"internalType":"uint256","name":"","type":"uint256"}],"stateMutability":"view","type":"function"},{"inputs":[{"internalType":"uint256","name":"","type":"uint256"}],"name":"itemPrices","outputs":[{"internalType":"uint256","name":"","type":"uint256"}],"stateMutability":"view","type":"function"},{"inputs":[],"name":"items","outputs":[{"internalType":"address","name":"","type":"address"}],"stateMutability":"view","type":"function"},{"inputs":[],"name":"nftl","outputs":[{"internalType":"address","name":"","type":"address"}],"stateMutability":"view","type":"function"},{"inputs":[],"name":"owner","outputs":[{"internalType":"address","name":"","type":"address"}],"stateMutability":"view","type":"function"},{"inputs":[],"name":"pause","outputs":[],"stateMutability":"nonpayable","type":"function"},{"inputs":[],"name":"paused","outputs":[{"internalType":"bool","name":"","type":"bool"}],"stateMutability":"view","type":"function"},{"inputs":[{"internalType":"uint256[]","name":"_itemIds","type":"uint256[]"},{"internalType":"uint256[]","name":"_amounts","type":"uint256[]"}],"name":"purchaseItems","outputs":[],"stateMutability":"nonpayable","type":"function"},{"inputs":[],"name":"renounceOwnership","outputs":[],"stateMutability":"nonpayable","type":"function"},{"inputs":[{"internalType":"uint256[]","name":"_itemIds","type":"uint256[]"},{"internalType":"uint256[]","name":"_maxCounts","type":"uint256[]"}],"name":"setItemMaxCounts","outputs":[],"stateMutability":"nonpayable","type":"function"},{"inputs":[{"internalType":"uint256[]","name":"_itemIds","type":"uint256[]"},{"internalType":"uint256[]","name":"_nftlAmounts","type":"uint256[]"}],"name":"setItemPrices","outputs":[],"stateMutability":"nonpayable","type":"function"},{"inputs":[{"internalType":"address","name":"newOwner","type":"address"}],"name":"transferOwnership","outputs":[],"stateMutability":"nonpayable","type":"function"},{"inputs":[],"name":"treasury","outputs":[{"internalType":"address","name":"","type":"address"}],"stateMutability":"view","type":"function"},{"inputs":[],"name":"treasuryPercentage","outputs":[{"internalType":"uint256","name":"","type":"uint256"}],"stateMutability":"view","type":"function"},{"inputs":[],"name":"unpause","outputs":[],"stateMutability":"nonpayable","type":"function"},{"inputs":[{"internalType":"uint256","name":"_burnPercentage","type":"uint256"},{"internalType":"uint256","name":"_treasuryPercentage","type":"uint256"},{"internalType":"uint256","name":"_daoPercentage","type":"uint256"}],"name":"updateTokenPercentages","outputs":[],"stateMutability":"nonpayable","type":"function"},{"inputs":[],"name":"withdraw","outputs":[],"stateMutability":"nonpayable","type":"function"}]}