{"address":"0x40433c2005D3126E136b2c4F7eb3Be9e7B44c7E6","bytecode":"0x608060405234801561001057600080fd5b50610eae806100206000396000f3fe608060405234801561001057600080fd5b50600436106100a95760003560e01c8063715018a611610071578063715018a6146101245780638456cb591461012c5780638da5cb5b14610134578063c06fad0614610145578063c0c53b8b14610158578063f2fde38b1461016b57600080fd5b806316e1172e146100ae578063307540f6146100c35780633f4ba83a146100f35780635c975abb146100fb5780635ec1081714610111575b600080fd5b6100c16100bc366004610b7d565b61017e565b005b60ca546100d6906001600160a01b031681565b6040516001600160a01b0390911681526020015b60405180910390f35b6100c1610660565b60975460ff1660405190151581526020016100ea565b60c9546100d6906001600160a01b031681565b6100c1610694565b6100c16106c8565b6033546001600160a01b03166100d6565b60cb546100d6906001600160a01b031681565b6100c1610166366004610b3b565b6106fa565b6100c1610179366004610b1a565b6107bf565b600260655414156101d65760405162461bcd60e51b815260206004820152601f60248201527f5265656e7472616e637947756172643a207265656e7472616e742063616c6c0060448201526064015b60405180910390fd5b600260655560975460ff16156102215760405162461bcd60e51b815260206004820152601060248201526f14185d5cd8589b194e881c185d5cd95960821b60448201526064016101cd565b80516006146102635760405162461bcd60e51b815260206004820152600e60248201526d092dcecc2d8d2c840d8cadccee8d60931b60448201526064016101cd565b60408051600680825260e082019092526000916020820160c080368337505060408051600680825260e0820190925292935060009291506020820160c080368337019050509050600160005b8451811015610399578481815181106102d857634e487b7160e01b600052603260045260246000fd5b602002602001015160001461034c57600185828151811061030957634e487b7160e01b600052603260045260246000fd5b602002602001015161031b9190610e1a565b83828151811061033b57634e487b7160e01b600052603260045260246000fd5b602002602001018181525050610351565b600091505b61035c816001610e02565b84828151811061037c57634e487b7160e01b600052603260045260246000fd5b60209081029190910101528061039181610e31565b9150506102af565b5060c954604051631ac8311560e21b81526001600160a01b0390911690636b20c454906103ce90339087908990600401610c77565b600060405180830381600087803b1580156103e857600080fd5b505af11580156103fc573d6000803e3d6000fd5b50505050336001600160a01b03167f61ae20b90b5539676f6e0d4a5afbf874157b645ef9f8163171f73c1adc74e5eb848660405161043b929190610d06565b60405180910390a280156105ab5760ca5460405163731133e960e01b8152336004820152600160248201819052604482015260806064820152600060848201526001600160a01b039091169063731133e99060a401600060405180830381600087803b1580156104aa57600080fd5b505af11580156104be573d6000803e3d6000fd5b505060cb54604051630fbfeffd60e11b81526001600160a01b039091169250631f7fdffa91506104f690339087908790600401610cb7565b600060405180830381600087803b15801561051057600080fd5b505af1158015610524573d6000803e3d6000fd5b505060408051600180825260208201523393507f8e590345184cf7d0786f64fa6623e16f019b438933b95c32f64147885218f51d92500160405180910390a2336001600160a01b03167fdc0f533bb7fe30cccfa8757300d99541b707d6f01e34457039140a610f04546f848460405161059e929190610d06565b60405180910390a2610655565b60cb54604051630fbfeffd60e11b81526001600160a01b0390911690631f7fdffa906105df90339087908990600401610cb7565b600060405180830381600087803b1580156105f957600080fd5b505af115801561060d573d6000803e3d6000fd5b50505050336001600160a01b03167fdc0f533bb7fe30cccfa8757300d99541b707d6f01e34457039140a610f04546f848660405161064c929190610d06565b60405180910390a25b505060016065555050565b6033546001600160a01b0316331461068a5760405162461bcd60e51b81526004016101cd90610d82565b61069261085a565b565b6033546001600160a01b031633146106be5760405162461bcd60e51b81526004016101cd90610d82565b61069260006108ed565b6033546001600160a01b031633146106f25760405162461bcd60e51b81526004016101cd90610d82565b61069261093f565b600061070660016109ba565b9050801561071e576000805461ff0019166101001790555b610726610a47565b61072e610a76565b610736610a76565b60c980546001600160a01b038087166001600160a01b03199283161790925560ca805486841690831617905560cb80549285169290911691909117905580156107b9576000805461ff0019169055604051600181527f7f26b83ff96e1f2b6a682f133852f6798a09c465da95921460cefb38474024989060200160405180910390a15b50505050565b6033546001600160a01b031633146107e95760405162461bcd60e51b81526004016101cd90610d82565b6001600160a01b03811661084e5760405162461bcd60e51b815260206004820152602660248201527f4f776e61626c653a206e6577206f776e657220697320746865207a65726f206160448201526564647265737360d01b60648201526084016101cd565b610857816108ed565b50565b60975460ff166108a35760405162461bcd60e51b815260206004820152601460248201527314185d5cd8589b194e881b9bdd081c185d5cd95960621b60448201526064016101cd565b6097805460ff191690557f5db9ee0a495bf2e6ff9c91a7834c1ba4fdd244a5e8aa4e537bd38aeae4b073aa335b6040516001600160a01b03909116815260200160405180910390a1565b603380546001600160a01b038381166001600160a01b0319831681179093556040519116919082907f8be0079c531659141344cd1fd0a4f28419497f9722a3daafe3b4186f6b6457e090600090a35050565b60975460ff16156109855760405162461bcd60e51b815260206004820152601060248201526f14185d5cd8589b194e881c185d5cd95960821b60448201526064016101cd565b6097805460ff191660011790557f62e78cea01bee320cd4e420270b5ea74000d11b0c9f74754ebdbfc544b05a2586108d03390565b60008054610100900460ff1615610a01578160ff1660011480156109dd5750303b155b6109f95760405162461bcd60e51b81526004016101cd90610d34565b506000919050565b60005460ff808416911610610a285760405162461bcd60e51b81526004016101cd90610d34565b506000805460ff191660ff92909216919091179055600190565b919050565b600054610100900460ff16610a6e5760405162461bcd60e51b81526004016101cd90610db7565b610692610aa5565b600054610100900460ff16610a9d5760405162461bcd60e51b81526004016101cd90610db7565b610692610ad5565b600054610100900460ff16610acc5760405162461bcd60e51b81526004016101cd90610db7565b610692336108ed565b600054610100900460ff16610afc5760405162461bcd60e51b81526004016101cd90610db7565b6001606555565b80356001600160a01b0381168114610a4257600080fd5b600060208284031215610b2b578081fd5b610b3482610b03565b9392505050565b600080600060608486031215610b4f578182fd5b610b5884610b03565b9250610b6660208501610b03565b9150610b7460408501610b03565b90509250925092565b60006020808385031215610b8f578182fd5b823567ffffffffffffffff80821115610ba6578384fd5b818501915085601f830112610bb9578384fd5b813581811115610bcb57610bcb610e62565b8060051b604051601f19603f83011681018181108582111715610bf057610bf0610e62565b604052828152858101935084860182860187018a1015610c0e578788fd5b8795505b83861015610c30578035855260019590950194938601938601610c12565b5098975050505050505050565b6000815180845260208085019450808401835b83811015610c6c57815187529582019590820190600101610c50565b509495945050505050565b6001600160a01b0384168152606060208201819052600090610c9b90830185610c3d565b8281036040840152610cad8185610c3d565b9695505050505050565b6001600160a01b0384168152608060208201819052600090610cdb90830185610c3d565b8281036040840152610ced8185610c3d565b8381036060909401939093525081526020019392505050565b604081526000610d196040830185610c3d565b8281036020840152610d2b8185610c3d565b95945050505050565b6020808252602e908201527f496e697469616c697a61626c653a20636f6e747261637420697320616c72656160408201526d191e481a5b9a5d1a585b1a5e995960921b606082015260800190565b6020808252818101527f4f776e61626c653a2063616c6c6572206973206e6f7420746865206f776e6572604082015260600190565b6020808252602b908201527f496e697469616c697a61626c653a20636f6e7472616374206973206e6f74206960408201526a6e697469616c697a696e6760a81b606082015260800190565b60008219821115610e1557610e15610e4c565b500190565b600082821015610e2c57610e2c610e4c565b500390565b6000600019821415610e4557610e45610e4c565b5060010190565b634e487b7160e01b600052601160045260246000fd5b634e487b7160e01b600052604160045260246000fdfea2646970667358221220334d7236a2b6984ee8cd93927a8a9abd7fc8a938035dc3d38d5dd601150dea6964736f6c63430008040033","abi":[{"anonymous":false,"inputs":[{"indexed":true,"internalType":"address","name":"by","type":"address"},{"indexed":false,"internalType":"uint256[]","name":"tokenIds","type":"uint256[]"},{"indexed":false,"internalType":"uint256[]","name":"values","type":"uint256[]"}],"name":"ComicsBurned","type":"event"},{"anonymous":false,"inputs":[{"indexed":false,"internalType":"uint8","name":"version","type":"uint8"}],"name":"Initialized","type":"event"},{"anonymous":false,"inputs":[{"indexed":true,"internalType":"address","name":"by","type":"address"},{"indexed":false,"internalType":"uint256[]","name":"tokenIds","type":"uint256[]"},{"indexed":false,"internalType":"uint256[]","name":"values","type":"uint256[]"}],"name":"ItemMinted","type":"event"},{"anonymous":false,"inputs":[{"indexed":true,"internalType":"address","name":"by","type":"address"},{"indexed":false,"internalType":"uint256","name":"tokenId","type":"uint256"},{"indexed":false,"internalType":"uint256","name":"value","type":"uint256"}],"name":"KeyMinted","type":"event"},{"anonymous":false,"inputs":[{"indexed":true,"internalType":"address","name":"previousOwner","type":"address"},{"indexed":true,"internalType":"address","name":"newOwner","type":"address"}],"name":"OwnershipTransferred","type":"event"},{"anonymous":false,"inputs":[{"indexed":false,"internalType":"address","name":"account","type":"address"}],"name":"Paused","type":"event"},{"anonymous":false,"inputs":[{"indexed":false,"internalType":"address","name":"account","type":"address"}],"name":"Unpaused","type":"event"},{"inputs":[{"internalType":"uint256[]","name":"_values","type":"uint256[]"}],"name":"burnComics","outputs":[],"stateMutability":"nonpayable","type":"function"},{"inputs":[],"name":"comics","outputs":[{"internalType":"address","name":"","type":"address"}],"stateMutability":"view","type":"function"},{"inputs":[{"internalType":"address","name":"_comics","type":"address"},{"internalType":"address","name":"_keys","type":"address"},{"internalType":"address","name":"_items","type":"address"}],"name":"initialize","outputs":[],"stateMutability":"nonpayable","type":"function"},{"inputs":[],"name":"items","outputs":[{"internalType":"address","name":"","type":"address"}],"stateMutability":"view","type":"function"},{"inputs":[],"name":"keys","outputs":[{"internalType":"address","name":"","type":"address"}],"stateMutability":"view","type":"function"},{"inputs":[],"name":"owner","outputs":[{"internalType":"address","name":"","type":"address"}],"stateMutability":"view","type":"function"},{"inputs":[],"name":"pause","outputs":[],"stateMutability":"nonpayable","type":"function"},{"inputs":[],"name":"paused","outputs":[{"internalType":"bool","name":"","type":"bool"}],"stateMutability":"view","type":"function"},{"inputs":[],"name":"renounceOwnership","outputs":[],"stateMutability":"nonpayable","type":"function"},{"inputs":[{"internalType":"address","name":"newOwner","type":"address"}],"name":"transferOwnership","outputs":[],"stateMutability":"nonpayable","type":"function"},{"inputs":[],"name":"unpause","outputs":[],"stateMutability":"nonpayable","type":"function"}]}