{"address":"0x2384B6498Fe25d0A1F7d6Bdc84E21494DB81962b","bytecode":"0x608060405234801561001057600080fd5b5061100a806100206000396000f3fe608060405234801561001057600080fd5b50600436106100ea5760003560e01c8063715018a61161008c578063b704f77611610066578063b704f776146101a6578063c06fad06146101af578063cf756fdf146101c2578063f2fde38b146101d557600080fd5b8063715018a6146101855780638456cb591461018d5780638da5cb5b1461019557600080fd5b8063307540f6116100c8578063307540f6146101295780633f4ba83a146101545780635c975abb1461015c5780635ec108171461017257600080fd5b806316e1172e146100ef5780632ca4695b146101045780632f07de7014610120575b600080fd5b6101026100fd366004610cd9565b6101e8565b005b61010d60cd5481565b6040519081526020015b60405180910390f35b61010d60cc5481565b60ca5461013c906001600160a01b031681565b6040516001600160a01b039091168152602001610117565b61010261078e565b60975460ff166040519015158152602001610117565b60c95461013c906001600160a01b031681565b6101026107c2565b6101026107f6565b6033546001600160a01b031661013c565b61010d60ce5481565b60cb5461013c906001600160a01b031681565b6101026101d0366004610c8f565b610828565b6101026101e3366004610c6e565b610913565b600260655414156102405760405162461bcd60e51b815260206004820152601f60248201527f5265656e7472616e637947756172643a207265656e7472616e742063616c6c0060448201526064015b60405180910390fd5b600260655560975460ff161561028b5760405162461bcd60e51b815260206004820152601060248201526f14185d5cd8589b194e881c185d5cd95960821b6044820152606401610237565b4260cc541115801561029f575060ce544211155b6102eb5760405162461bcd60e51b815260206004820152601b60248201527f4275726e696e6720636f6d696373206973206e6f742076616c696400000000006044820152606401610237565b805160061461032d5760405162461bcd60e51b815260206004820152600e60248201526d092dcecc2d8d2c840d8cadccee8d60931b6044820152606401610237565b60408051600680825260e082019092526000916020820160c080368337505060408051600680825260e0820190925292935060009291506020820160c080368337505060cd5491925050421160008161038757600061038b565b6000195b905060005b85518110156104415782156103f957818682815181106103c057634e487b7160e01b600052603260045260246000fd5b602002602001015110156103f9578581815181106103ee57634e487b7160e01b600052603260045260246000fd5b602002602001015191505b610404816001610f5e565b85828151811061042457634e487b7160e01b600052603260045260246000fd5b60209081029190910101528061043981610f8d565b915050610390565b5080156104c65760005b85518110156104c4578186828151811061047557634e487b7160e01b600052603260045260246000fd5b60200260200101516104879190610f76565b8482815181106104a757634e487b7160e01b600052603260045260246000fd5b6020908102919091010152806104bc81610f8d565b91505061044b565b505b60c954604051631ac8311560e21b81526001600160a01b0390911690636b20c454906104fa90339088908a90600401610dd3565b600060405180830381600087803b15801561051457600080fd5b505af1158015610528573d6000803e3d6000fd5b50505050336001600160a01b03167f61ae20b90b5539676f6e0d4a5afbf874157b645ef9f8163171f73c1adc74e5eb8587604051610567929190610e62565b60405180910390a280156106d85760ca5460405163731133e960e01b8152336004820152600160248201526044810183905260806064820152600060848201526001600160a01b039091169063731133e99060a401600060405180830381600087803b1580156105d657600080fd5b505af11580156105ea573d6000803e3d6000fd5b505060cb54604051630fbfeffd60e11b81526001600160a01b039091169250631f7fdffa915061062290339088908890600401610e13565b600060405180830381600087803b15801561063c57600080fd5b505af1158015610650573d6000803e3d6000fd5b50506040805160018152602081018590523393507f8e590345184cf7d0786f64fa6623e16f019b438933b95c32f64147885218f51d92500160405180910390a2336001600160a01b03167fdc0f533bb7fe30cccfa8757300d99541b707d6f01e34457039140a610f04546f85856040516106cb929190610e62565b60405180910390a2610782565b60cb54604051630fbfeffd60e11b81526001600160a01b0390911690631f7fdffa9061070c90339088908a90600401610e13565b600060405180830381600087803b15801561072657600080fd5b505af115801561073a573d6000803e3d6000fd5b50505050336001600160a01b03167fdc0f533bb7fe30cccfa8757300d99541b707d6f01e34457039140a610f04546f8587604051610779929190610e62565b60405180910390a25b50506001606555505050565b6033546001600160a01b031633146107b85760405162461bcd60e51b815260040161023790610ede565b6107c06109ae565b565b6033546001600160a01b031633146107ec5760405162461bcd60e51b815260040161023790610ede565b6107c06000610a41565b6033546001600160a01b031633146108205760405162461bcd60e51b815260040161023790610ede565b6107c0610a93565b60006108346001610b0e565b9050801561084c576000805461ff0019166101001790555b610854610b9b565b61085c610bca565b610864610bca565b60c980546001600160a01b038088166001600160a01b03199283161790925560ca805487841690831617905560cb80549286169290911691909117905560cc8290556108b3826213c680610f5e565b60cd556108c38262278d00610f5e565b60ce55801561090c576000805461ff0019169055604051600181527f7f26b83ff96e1f2b6a682f133852f6798a09c465da95921460cefb38474024989060200160405180910390a15b5050505050565b6033546001600160a01b0316331461093d5760405162461bcd60e51b815260040161023790610ede565b6001600160a01b0381166109a25760405162461bcd60e51b815260206004820152602660248201527f4f776e61626c653a206e6577206f776e657220697320746865207a65726f206160448201526564647265737360d01b6064820152608401610237565b6109ab81610a41565b50565b60975460ff166109f75760405162461bcd60e51b815260206004820152601460248201527314185d5cd8589b194e881b9bdd081c185d5cd95960621b6044820152606401610237565b6097805460ff191690557f5db9ee0a495bf2e6ff9c91a7834c1ba4fdd244a5e8aa4e537bd38aeae4b073aa335b6040516001600160a01b03909116815260200160405180910390a1565b603380546001600160a01b038381166001600160a01b0319831681179093556040519116919082907f8be0079c531659141344cd1fd0a4f28419497f9722a3daafe3b4186f6b6457e090600090a35050565b60975460ff1615610ad95760405162461bcd60e51b815260206004820152601060248201526f14185d5cd8589b194e881c185d5cd95960821b6044820152606401610237565b6097805460ff191660011790557f62e78cea01bee320cd4e420270b5ea74000d11b0c9f74754ebdbfc544b05a258610a243390565b60008054610100900460ff1615610b55578160ff166001148015610b315750303b155b610b4d5760405162461bcd60e51b815260040161023790610e90565b506000919050565b60005460ff808416911610610b7c5760405162461bcd60e51b815260040161023790610e90565b506000805460ff191660ff92909216919091179055600190565b919050565b600054610100900460ff16610bc25760405162461bcd60e51b815260040161023790610f13565b6107c0610bf9565b600054610100900460ff16610bf15760405162461bcd60e51b815260040161023790610f13565b6107c0610c29565b600054610100900460ff16610c205760405162461bcd60e51b815260040161023790610f13565b6107c033610a41565b600054610100900460ff16610c505760405162461bcd60e51b815260040161023790610f13565b6001606555565b80356001600160a01b0381168114610b9657600080fd5b600060208284031215610c7f578081fd5b610c8882610c57565b9392505050565b60008060008060808587031215610ca4578283fd5b610cad85610c57565b9350610cbb60208601610c57565b9250610cc960408601610c57565b9396929550929360600135925050565b60006020808385031215610ceb578182fd5b823567ffffffffffffffff80821115610d02578384fd5b818501915085601f830112610d15578384fd5b813581811115610d2757610d27610fbe565b8060051b604051601f19603f83011681018181108582111715610d4c57610d4c610fbe565b604052828152858101935084860182860187018a1015610d6a578788fd5b8795505b83861015610d8c578035855260019590950194938601938601610d6e565b5098975050505050505050565b6000815180845260208085019450808401835b83811015610dc857815187529582019590820190600101610dac565b509495945050505050565b6001600160a01b0384168152606060208201819052600090610df790830185610d99565b8281036040840152610e098185610d99565b9695505050505050565b6001600160a01b0384168152608060208201819052600090610e3790830185610d99565b8281036040840152610e498185610d99565b8381036060909401939093525081526020019392505050565b604081526000610e756040830185610d99565b8281036020840152610e878185610d99565b95945050505050565b6020808252602e908201527f496e697469616c697a61626c653a20636f6e747261637420697320616c72656160408201526d191e481a5b9a5d1a585b1a5e995960921b606082015260800190565b6020808252818101527f4f776e61626c653a2063616c6c6572206973206e6f7420746865206f776e6572604082015260600190565b6020808252602b908201527f496e697469616c697a61626c653a20636f6e7472616374206973206e6f74206960408201526a6e697469616c697a696e6760a81b606082015260800190565b60008219821115610f7157610f71610fa8565b500190565b600082821015610f8857610f88610fa8565b500390565b6000600019821415610fa157610fa1610fa8565b5060010190565b634e487b7160e01b600052601160045260246000fd5b634e487b7160e01b600052604160045260246000fdfea264697066735822122059c4b27ee5023456d3bcafb12325f799bbb382d51a70822bf8ca39d8a7d9193a64736f6c63430008040033","abi":[{"anonymous":false,"inputs":[{"indexed":true,"internalType":"address","name":"by","type":"address"},{"indexed":false,"internalType":"uint256[]","name":"tokenIds","type":"uint256[]"},{"indexed":false,"internalType":"uint256[]","name":"values","type":"uint256[]"}],"name":"ComicsBurned","type":"event"},{"anonymous":false,"inputs":[{"indexed":false,"internalType":"uint8","name":"version","type":"uint8"}],"name":"Initialized","type":"event"},{"anonymous":false,"inputs":[{"indexed":true,"internalType":"address","name":"by","type":"address"},{"indexed":false,"internalType":"uint256[]","name":"tokenIds","type":"uint256[]"},{"indexed":false,"internalType":"uint256[]","name":"values","type":"uint256[]"}],"name":"ItemMinted","type":"event"},{"anonymous":false,"inputs":[{"indexed":true,"internalType":"address","name":"by","type":"address"},{"indexed":false,"internalType":"uint256","name":"tokenId","type":"uint256"},{"indexed":false,"internalType":"uint256","name":"value","type":"uint256"}],"name":"KeyMinted","type":"event"},{"anonymous":false,"inputs":[{"indexed":true,"internalType":"address","name":"previousOwner","type":"address"},{"indexed":true,"internalType":"address","name":"newOwner","type":"address"}],"name":"OwnershipTransferred","type":"event"},{"anonymous":false,"inputs":[{"indexed":false,"internalType":"address","name":"account","type":"address"}],"name":"Paused","type":"event"},{"anonymous":false,"inputs":[{"indexed":false,"internalType":"address","name":"account","type":"address"}],"name":"Unpaused","type":"event"},{"inputs":[{"internalType":"uint256[]","name":"_values","type":"uint256[]"}],"name":"burnComics","outputs":[],"stateMutability":"nonpayable","type":"function"},{"inputs":[],"name":"comics","outputs":[{"internalType":"address","name":"","type":"address"}],"stateMutability":"view","type":"function"},{"inputs":[],"name":"comicsBurningEndAt","outputs":[{"internalType":"uint256","name":"","type":"uint256"}],"stateMutability":"view","type":"function"},{"inputs":[],"name":"comicsBurningStartAt","outputs":[{"internalType":"uint256","name":"","type":"uint256"}],"stateMutability":"view","type":"function"},{"inputs":[{"internalType":"address","name":"_comics","type":"address"},{"internalType":"address","name":"_keys","type":"address"},{"internalType":"address","name":"_items","type":"address"},{"internalType":"uint256","name":"_comicsBurningStartAt","type":"uint256"}],"name":"initialize","outputs":[],"stateMutability":"nonpayable","type":"function"},{"inputs":[],"name":"items","outputs":[{"internalType":"address","name":"","type":"address"}],"stateMutability":"view","type":"function"},{"inputs":[],"name":"keys","outputs":[{"internalType":"address","name":"","type":"address"}],"stateMutability":"view","type":"function"},{"inputs":[],"name":"mintNiftyKeysStartAt","outputs":[{"internalType":"uint256","name":"","type":"uint256"}],"stateMutability":"view","type":"function"},{"inputs":[],"name":"owner","outputs":[{"internalType":"address","name":"","type":"address"}],"stateMutability":"view","type":"function"},{"inputs":[],"name":"pause","outputs":[],"stateMutability":"nonpayable","type":"function"},{"inputs":[],"name":"paused","outputs":[{"internalType":"bool","name":"","type":"bool"}],"stateMutability":"view","type":"function"},{"inputs":[],"name":"renounceOwnership","outputs":[],"stateMutability":"nonpayable","type":"function"},{"inputs":[{"internalType":"address","name":"newOwner","type":"address"}],"name":"transferOwnership","outputs":[],"stateMutability":"nonpayable","type":"function"},{"inputs":[],"name":"unpause","outputs":[],"stateMutability":"nonpayable","type":"function"}]}